:100000000C94C8010C94F9010C94F9010C94F901B9
:100010000C94F9010C94F9010C94F9010C94F90178
:100020000C94F9010C94F9010C94F9010C94F90168
:100030000C94F9010C94F9010C94F9010C94F90158
:100040000C94F9010C94F9010C94F9010C94F90148
:100050000C94F9010C94F9010C94F9010C94F90138
:100060000C94F9010C94B60C0C94F9010C94F90160
:100070000C94F9010C94F9010C94F9010C94F90118
:100080000C94F9010C94F9010C94F9010C94F90108
:100090000C94030D0C94F9010C94F9010C94F901E2
:1000A0000C94F9010C94F9010C94F9010C94F901E8
:1000B0000C94F9010C94F9010C94F9010C940F0FB4
:1000C0000C94F9010C94F9010C94F9014D4534306C
:1000D00035204C61622031205374617274696E67FF
:1000E0002050726F6772616D0050726573732043A8
:1000F00074726C2D4120666F7220636F6D6D616E3E
:1001000064206D6F646500526573657474696E6711
:1001100020415652004578697420636F6D6D616EA1
:1001200064206D6F6465003A5754463F00496C6C1B
:100130006567616C20737461746521205265736515
:100140007474696E6720415652004D453430352035
:100150006261736520726164696F2070726F67728B
:10016000616D2056302E3420002068656C700020B0
:100170002043746C2D433A20526573657420746873
:10018000652041565200202043746C2D413A204591
:100190006E74657220636F6D6D616E64206D6F6447
:1001A00065002020496E20636F6D6D616E64206D67
:1001B0006F6465206F6E6C793A00202020206E3AC3
:1001C00020202053686F77207468652074696D65FE
:1001D000207269676874206E6F7700202020207677
:1001E0003A20202056657273696F6E20616E64201C
:1001F000736574757020696E666F726D6174696F76
:100200006E0020202020733A202020537461636BFD
:100210002064756D7020666F72207461736B73005B
:1002200020202020653A2020204578697420636FC3
:100230006D6D616E64206D6F646500202020206804
:100240003A20202048414C5021004D453430352083
:100250006261736520726164696F2070726F67728A
:10026000616D2056302E34200041707220313120D3
:10027000323031340054696D653A20002C204865D5
:10028000617020667265653A20002F002C204F4374
:100290005235413D005461736B20002063726561EB
:1002A000746564002C20737461636B20617420306A
:1002B00078004552524F52206372656174696E67CF
:1002C000207461736B20004552524F5220696E209A
:1002D0007461736B2000526573657474696E670096
:1002E0001B5B316D005461736B3A2049444C4500EF
:1002F0001B5B32326D001B5B316D005461736B3AD6
:1003000020001B5B32326D00090009002F0009003C
:1003100009005461736B09092020092000095374F6
:1003200061636B004E616D6509095072692E095356
:10033000746174650009467265652F546F74616C51
:10034000000952756E73002D2D2D2D09092D2D2DAF
:100350002D092D2D2D2D2D00092D2D2D2D2D2D2D42
:100360002D2D2D00092D2D2D2D0049444C45090919
:1003700030092D09002F000909002020001B5B31E6
:100380006D001B5B316D001B5B32326D0000191B71
:1003900011241FBECFEFD1E2DEBFCDBF12E0A0E03F
:1003A000B2E0E4E1F8E300E00BBF02C007900D9279
:1003B000AA39B107D9F71BBE1AE1AAE9B2E001C018
:1003C0001D92A635B107E1F713E0C0E9D3E000E0E4
:1003D00006C022970109FE010BBF0E949A1BCE386E
:1003E000D10780E00807A9F71BBE0E94CF1A0C9422
:1003F000081C0C9400000F931F93CF93DF93EC0124
:100400000E9489058BE092E099838883DF91CF91E8
:100410001F910F9108950F931F93CF93DF938C013A
:10042000FC01868197816AE00E94880AEC016AE4F7
:1004300071E00E94470ACE016AE00E94880AEC013E
:1004400069E671E00E94470ACE0166E00E94880AD0
:10045000F801868197816AE00E94880AEC016FE6C4
:1004600071E00E94470ACE0166E00E94880AF80106
:10047000868197816AE00E94880AEC0166E871E053
:100480000E94470ACE0166E00E94880AF801868130
:1004900097816AE00E94880AEC0162EA71E00E949A
:1004A000470ACE0166E00E94880AF801868197819A
:1004B0006AE00E94880AEC016AEB71E00E94470A38
:1004C000CE0166E00E94880AF801868197816AE081
:1004D0000E94880AEC016BED71E00E94470ACE0190
:1004E00066E00E94880AF801868197816AE00E948E
:1004F000880AEC0162E072E00E94470ACE0166E0E1
:100500000E94880AF801868197816AE00E94880A21
:10051000EC0160E272E00E94470ACE0166E00E94B0
:10052000880AF801868197816AE00E94880AEC01B6
:100530006BE372E00E94470ACE0166E00E94880ADF
:10054000DF91CF911F910F910895EF92FF920F933A
:100550001F93CF93DF9300D000D000D0CDB7DEB78C
:100560007C0119821A821B821C821E821D82FC0160
:100570008681978166E00E94880A6AE00E94880A64
:100580008C016AE472E00E94470AC8016AE00E9496
:10059000880A8C0169E672E00E94470AC80166E099
:1005A0000E94880A6AE00E94880A8C0165E772E06E
:1005B0000E94470ACE0101960E944909BC01C80168
:1005C0000E94DC086AE00E94880A8C016CE772E0F5
:1005D0000E94470A0E94820DBC01C8010E94D90AEC
:1005E0006AE00E94880A8C016AE872E00E94470A69
:1005F000C80148E357E160E070E00E94130BF70187
:10060000868197816AE00E94880A8C016CE872E01A
:100610000E94470A6091980070919900C8010E9459
:10062000D90A66E00E94880A66E00E94880AF701FB
:10063000868197810E94CB0726960FB6F894DEBF7D
:100640000FBECDBFDF91CF911F910F91FF90EF9023
:100650000895CF93DF93CDB7DEB728970FB6F89400
:10066000DEBF0FBECDBF8C0119821A821B821C8295
:100670001E821D82DC0116968D919C9117976AE06F
:100680000E94880A7C0169EE70E00E94470AC70157
:1006900066E00E94880AF8018485882391F58681A6
:1006A0009781DC01ED91FC910480F581E02D0995A5
:1006B000882309F4A6C0F80186819781DC01ED91B9
:1006C000FC910680F781E02D0995813009F491C0F5
:1006D000833009F473C0F80186859785A089B189B4
:1006E0000196A11DB11D86879787A08BB18B61E014
:1006F00070E080E090E00E94A516F80184858823D0
:1007000071F28130D9F0F801868197816AE00E9408
:10071000880A8C016DE271E00E94470AC80166E018
:100720000E94880A2BE088E190E00FB6F894A89523
:10073000809360000FBE20936000FFCF8681978179
:10074000DC01ED91FC910480F581E02D0995882371
:1007500009F4C1CFF80186819781DC01ED91FC910C
:100760000680F781E02D0995682F883609F491C03D
:1007700089360CF078C08B3109F461C0853609F4F4
:100780005EC0F801A681B781ED91FC9111970280BE
:10079000F381E02DCD010995D80116968D919C919C
:1007A00017976AE00E94880A7C0167E271E00E9464
:1007B000470AC70166E00E94880A8DCFF80186814A
:1007C00097816AE00E94880A8C0167E071E00E94CC
:1007D000470AC80166E00E94880A2BE088E190E0A1
:1007E0000FB6F894A895809360000FBE2093600028
:1007F000FFCFC8010E940B02C80161E00E9485057D
:100800006ACF8AE992E00E947B08882309F463CFCB
:10081000D8011696ED90FC901797D701ED91FC91B9
:100820002281338138872F838AE992E00E945B0816
:10083000682FC7012F813885F90109954CCFF80140
:10084000868197816AE00E94880A7C0165E171E0F7
:100850000E94470AC70166E00E94880AC80160E05A
:100860000E94850538CF8337E1F08637B1F08E36A8
:1008700009F087CFF801E680F780CE0101960E944B
:100880004909BC01C7010E94DC0866E00E94880A91
:1008900022CFC8010E940B021ECFC8010E94A502F0
:1008A0001ACFD80116968D919C9117970E94DB065E
:1008B00012CFCF93DF9300D000D000D0CDB7DEB7FA
:1008C0009E838D830E94F214DC01CB0189839A837D
:1008D000AB83BC8382E090E00E94100AED81FE8130
:1008E000668177810E94460580E18DB981E380931E
:1008F00090008BE080939100CE01019644E650E099
:1009000060E070E00E94DB16F7CF0F931F93CF9348
:10091000DF93EC010E94890583E192E0998388834B
:10092000DF91CF911F910F910895CF93DF93FC0139
:100930007183608380E480937C0080917C0082835B
:1009400085E880937A00C081D181209749F0CE015B
:1009500067E172E00E94470ACE0166E00E94880AC1
:10096000DF91CF910895FC01828180937C0080917A
:100970007C00682B60937C0080917A008064809377
:100980007A0080917A0086FF1BC090E09F5F809183
:100990007A0086FD0CC080917800409179009134F6
:1009A000C9F0342F20E090E0822B932B08959134EE
:1009B00069F780917800809179008FEF9FEF08951B
:1009C0008091780090917900392F20E090E0822B7F
:1009D000932B08958FEF9FEF0895DF92EF92FF9290
:1009E0000F931F93CF93DF938C01F62ED42E80E2CA
:1009F0008417E0F480E2D82EEE24C0E0D0E0C801F5
:100A00006F2D0E94B304C80FD91FE394ED14B9F7FA
:100A10006D2DCE0170E00E94491BCB01DF91CF917B
:100A20001F910F91FF90EF90DF900895442321F7DD
:100A3000C0E0D0E0EDCFCF93DF93D82FC92F6AE28B
:100A400072E00E94470A8D2F9C2F60E00E94880A66
:100A500060917C000E94590B66E00E94880A8D2FED
:100A60009C2F62E372E00E94470A8D2F9C2F60E06A
:100A70000E94880A60917A000E94590B66E00E94E9
:100A8000880A8D2F9C2FDF91CF910895CF93DF930C
:100A9000FC01718360838FEF87B984B985E088B9E1
:100AA00080EA8BB989EA8093800083E1809381009A
:100AB00082E390E090938900809388008BEA90E035
:100AC00090938B0080938A00C081D181209749F058
:100AD000CE016BE372E00E94470ACE0166E00E94FD
:100AE000880ADF91CF910895EC01E881F9810190A6
:100AF000F081E02D09951B821A826FEF7FEFCB0109
:100B00000E94A516FACF0E947405FC0164876587D0
:100B100008952F923F924F925F926F927F928F92A1
:100B20009F92AF92BF92CF92DF92EF92FF920F937C
:100B30001F93CF93DF93CDB7DEB72A970FB6F89404
:100B4000DEBF0FBECDBF4C01DB01D42E1901280141
:100B50008BE592E0F401918380832C91222309F4A8
:100B60007BC03E010894611C711C1196CE010A964F
:100B7000F30121933E2F36192D91222309F067C0EE
:100B8000832F90E0860D971DFC01108222E0E22E5B
:100B9000F12CE80CF91C83E895E0B301A101940164
:100BA0000D2DCC24DD24AA24BB240E94ED12F401D7
:100BB00057824682318620862091AA023091AB026C
:100BC000358324839092AB028092AA021486158604
:100BD0002091541A3091551A2F5F3F4F3093551A78
:100BE0002093541A3387228716861786108A118A13
:100BF0004114510499F08130B1F1C2016AE00E94C0
:100C0000880A7C0162EB72E00E94470AC701B301C7
:100C10000E94470AC70166E00E94880A2A960FB61A
:100C2000F894DEBF0FBECDBFDF91CF911F910F9122
:100C3000FF90EF90DF90CF90BF90AF909F908F90FC
:100C40007F906F905F904F903F902F900895E8179E
:100C5000F90709F08ECF94CF80E090E03E01089430
:100C6000611C711C8FCFC2016AE00E94880A7C015E
:100C700065E972E00E94470AC701B3010E94470A72
:100C8000C7016AE00E94880A7C016BE972E00E9459
:100C9000470AC7016AE00E94880A7C0164EA72E0A0
:100CA0000E94470AC70163E00E94880AF401628536
:100CB00073850E94D90A62E00E94880A66E00E9459
:100CC000880AACCFEC018E819F816AE00E94880A7D
:100CD0008C0167EC72E00E94470A8A819B810E9426
:100CE0001815BC01C8010E94470AC8016AE00E94A9
:100CF000880AEC0166ED72E00E94470ACE0166E0C8
:100D00000E94880A2BE088E190E00FB6F894A8953D
:100D1000809360000FBE20936000FFCFCF92DF92E0
:100D2000EF92FF920F93CF93DF937C016B01C6018B
:100D30006AE00E94880AEC0166EF72E00E94470AAE
:100D4000CE016AE00E94880AEC016BEF72E00E941B
:100D5000470AF701828193810E941815BC01CE01D8
:100D60000E94470ACE016AE00E94880AEC0162E014
:100D700073E00E94470ACE0166E00E94880AF701EC
:100D800062857385808591859B01281B390BC9017C
:100D9000A60121E001E10E946309F701E480F580EA
:100DA000E114F10421F6DF91CF910F91FF90EF90C4
:100DB000DF90CF9008950F931F93CF93DF938C0113
:100DC0008091AA029091AB02009719F0B8010E949D
:100DD0008E06C8016AE00E94880AEC0160EE72E0AB
:100DE0000E94470ACE016AE00E94880AEC0165EE83
:100DF00072E00E94470ACE016AE00E94880AEC0174
:100E000060EF72E00E94470ACE0166E00E94880A05
:100E10008091541A9091551ABC016F5F7F4F835691
:100E20009040A80121E001E10E946309DF91CF9188
:100E30001F910F9108950F931F93CF93DF938C0110
:100E4000EB01FC01828193810E941815BC01CE0147
:100E50000E94470AE881F9810280F381E02DCE01EA
:100E600069E00995F801828193810E941815DC01DF
:100E70000D900020E9F71197A81BB90BA830B10518
:100E800040F4E881F9810280F381E02DCE0169E030
:100E90000995F801828193810E941414682FCE0174
:100EA0000E94590B6AE00E94880AEC0168E073E036
:100EB0000E94470ACE01F80164850E94590B6AE03E
:100EC0000E94880AEC016AE073E00E94470AF80178
:100ED000828193810E947B18682FCE010E94590B5A
:100EE0006AE00E94880AEC016CE073E00E94470A05
:100EF000F80160857185CE010E94D90A6AE00E94DE
:100F0000880AEC016EE073E00E94470ACE016AE0B5
:100F10000E94880AEC0160E173E00E94470AF80130
:100F20004685578560897189CE010E94130BDF9138
:100F3000CF911F910F9108950F931F93CF93DF933C
:100F4000EC018B01E881F9810280F381E02DCE0173
:100F5000B8010995C80166E00E94880A0C80DD810D
:100F6000C02D209779F7DF91CF911F910F910895B0
:100F7000CF93DF93D82FC92FDB01ED91FC91028035
:100F8000F381E02DCB016D2F7C2F09958D2F9C2FA8
:100F9000DF91CF9108950F931F93CF93DF938C012F
:100FA0006AE00E94880AEC0162E173E00E94470A4D
:100FB000CE016AE00E94880AEC016DE173E00E94B4
:100FC000470ACE0166E00E94880AC8016AE00E94D2
:100FD000880AEC0164E273E00E94470ACE016AE0ED
:100FE0000E94880AEC0165E373E00E94470ACE0183
:100FF0006AE00E94880AEC0161E473E00E94470AFB
:10100000CE0166E00E94880AC8016AE00E94880A50
:10101000EC0167E473E00E94470ACE016AE00E9497
:10102000880AEC0168E573E00E94470ACE016AE095
:101030000E94880AEC0164E673E00E94470ACE0130
:1010400066E00E94880A8091AA029091AB02009704
:1010500019F0B8010E949C07C8016AE00E94880A42
:10106000EC016AE673E00E94470A0E9422150E9482
:101070007B18682FCE010E94590B6AE00E94880AF3
:10108000EC0165E773E00E94470ACE0164E670E078
:101090000E94D90A6AE00E94880AEC0167E773E0BF
:1010A0000E94470ACE0166E00E94880ADF91CF9134
:1010B0001F910F9108950F93CF93DF930F92CDB7A8
:1010C000DEB7FC0180859185BE016F5F7F4F2FEFFA
:1010D0003FEFA90100E00E946511813049F4898148
:1010E000992787FD90950F90DF91CF910F910895EB
:1010F0008FEF9FEFF8CFFC01808591850E946F12E2
:1011000091E0882309F490E0892F08950F93CF93FD
:10111000DF930F92CDB7DEB7FC016983228533855B
:101120004485558580859185BE016F5F7F4F00E0C6
:101130000E945C1091E0882309F490E0892F0F90C1
:10114000DF91CF910F9108958F929F92AF92BF92AE
:10115000CF92DF92EF92FF920F931F93CF93DF9383
:101160000F92CDB7DEB74C015A016801790169834E
:101170000E94390A83E692E0F40191838083B78666
:10118000A6866981862F61E040E00E941710F40175
:1011900091878087C286D386E486F5860F90DF919B
:1011A000CF911F910F91FF90EF90DF90CF90BF9064
:1011B000AF909F908F900895CF92DF92EF92FF9221
:1011C0000F931F93CF93DF93CDB7DEB767970FB61B
:1011D000F894DEBF0FBECDBF7C018B01DB016D91AA
:1011E0007D918D919C9128EE33E040E050E00E948B
:1011F0005D1BC701BA01A9010E94130BD701ED9134
:10120000FC910280F381E02DC7016EE20995C801CF
:101210000E943D198E01095F1F4F6E010894C11C89
:10122000D11C2AE030E040E050E00E947F1B288B78
:10123000398B4A8B5B8B6C8B7D8B8E8B9F8BFE01EE
:101240003896DE01509688E00D9001928150E1F7CA
:10125000688579858A859B852C85205DF801229398
:101260008F01EC15FD05E9F61F82C701BF010E9441
:10127000470AC70167960FB6F894DEBF0FBECDBF11
:10128000DF91CF911F910F91FF90EF90DF90CF9062
:101290000895CF93DF93EC010FB6F8940F928091ED
:1012A0002401909125019D838C830E94F214DC011E
:1012B000CB0188839983AA83BB830F900FBECE0195
:1012C000DF91CF9108954F925F926F927F929F929C
:1012D000AF92BF92CF92DF92EF92FF920F931F9344
:1012E000CF93DF936C012B017A01B22E902ECA01AD
:1012F00063E00E94880AC414D50408F062C0860125
:101300000C5E1F4FAA243601C701B6010E94D90AFC
:101310006AE00E94880A6AE773E00E94470ABB20DD
:1013200019F0AA2009F061C0E6016881BB2079F0BC
:10133000AA2069F4691559F0C7016AE00E94880A79
:1013400062E873E00E94470A6881AA24A394219668
:10135000C7010E94590BDC01ED91FC910280F381E1
:10136000E02D60E20995C017D107F9F6BB2031F0F6
:1013700045C0C7010995C016D106A1F0F6016191DB
:101380006F01862F8052D701ED91FC911197028059
:10139000F381E02D8F3568F3C7016EE20995C01621
:1013A000D10661F784E1C82ED12CC60CD71CC70129
:1013B00066E00E94880A0C5E1F4FC414D50408F42E
:1013C000A2CFC70162E00E94880ADF91CF911F91EE
:1013D0000F91FF90EF90DF90CF90BF90AF909F90D4
:1013E0007F906F905F904F900895C7016AE00E94D0
:1013F000880A6DE773E00E94470A96CFC7016AE04A
:101400000E94880AEC0167E873E00E94470AE881BD
:10141000F9810280F381E02DCE0160E20995AECF23
:101420000E94500D0895009711F00E947C0D0895C0
:101430000E94500D0895009711F00E947C0D0895B0
:1014400021E030E0FC018081882311F020E030E0D1
:10145000C901089521E0FC012083089508950895AD
:1014600081E0089580E090E0089580E00895089577
:101470000895FC0183E792E0918380838AE0828370
:10148000138283E0858314821782168208950F9356
:101490001F93CF93DF938C01EB01DC0114968C91A9
:1014A00014978823A1F46881662361F02196D801FE
:1014B000ED91FC910280F381E02DC80109956991BD
:1014C0006623A9F7DF91CF911F910F910895F8013D
:1014D0001482FB0164916623A9F32196F801A0818F
:1014E000B1811296ED91FC911397C8010995FE0107
:1014F00021966491662391F7DF91CF911F910F910F
:101500000895883008F087E080937F0289E008958D
:10151000CF93DF93EC01643009F448C06530D8F014
:10152000673081F1683010F5653051F1663079F43B
:10153000E881F9810280F381E02D6DE00995E88171
:10154000F9810280F381E02DCE016AE00995CE0198
:10155000DF91CF910895613031F1613070F06230E8
:10156000C1F06330A1F780E18A83F1CF6830A1F048
:101570006A3069F781E08C83EACF82E08A83E7CF23
:101580001B82E5CFE881F9810284F385E02D09957E
:10159000DECF8AE08A83DBCFE881F9810084F185A0
:1015A000E02D0995D4CF88E08A83D1CF81E08B8369
:1015B000CECFFF920F931F93CF93DF93CDB7DEB7BC
:1015C00061970FB6F894DEBF0FBECDBF8C01F62E2B
:1015D000FC014281403199F0483089F0423079F085
:1015E000862F972FBE016F5F7F4F50E00E94E21B56
:1015F000C801BE016F5F7F4F0E94470A07C0C80144
:10160000672F0E94590B6F2D0E94590BC8016196DC
:101610000FB6F894DEBF0FBECDBFDF91CF911F9103
:101620000F91FF900895FF920F931F93CF93DF9335
:10163000CDB7DEB7A3970FB6F894DEBF0FBECDBF10
:101640008C01F62E372FFC0122812031A1F02830A9
:1016500091F0223081F0BA018F2D932FAE014F5FB0
:101660005F4F30E00E94BD1BC801BE016F5F7F4F1E
:101670000E94470A11C0C801632F4BA35AA30E94BE
:10168000590B6F2D0E94590B5AA1652F0E94590BBF
:101690004BA1642F0E94590BC801A3960FB6F89472
:1016A000DEBF0FBECDBFDF91CF911F910F91FF9095
:1016B0000895CF92DF92EF92FF920F931F93CF93F3
:1016C000DF93CDB7DEB729970FB6F894DEBF0FBE14
:1016D000CDBF6C01062FDC0113968C9113978823E4
:1016E00009F05EC0F60142814230E1F14031F1F093
:1016F000862F90E0BE016F5F7F4F50E00E94E21B9B
:10170000C601BE016F5F7F4F0E94470AC60129963E
:101710000FB6F894DEBF0FBECDBFDF91CF911F9102
:101720000F91FF90EF90DF90CF90089562956F70CA
:101730000190F081E02D0280F381E02D6A30C0F548
:10174000605DC60109950F70D601ED91FC9111976E
:101750000280F381E02D602F0A3060F1695CC601E0
:101760000995D4CF88E0E82EF12C10E80AC0C60114
:1017700061E3099516950894E108F108E114F10474
:1017800029F2812F8023D601ED91FC9111970280DF
:10179000F381E02D882359F7C60160E30995EACF6C
:1017A000ED91FC910280F381E02DC6010995AECF49
:1017B000695CC7CF605DD3CFFC01A285B3858C91F6
:1017C0003685832341F481E29EE402C0019769F0EB
:1017D0002C912323D9F38C919089892B8C930084AD
:1017E000F185E02D608381E0089580E00895FC019B
:1017F0008189882309F52091B4023091B502809146
:10180000B2029091B30228173907C1F1E091B602F4
:10181000F091B702E20FF31F80812F5F3F4F3093AB
:10182000B5022093B4022032310520F01092B502A7
:101830001092B40290E008952091AE023091AF0270
:101840008091AC029091AD0282179307B1F0E091C4
:10185000B002F091B102E20FF31F80812F5F3F4F82
:101860003093AF022093AE022032310518F310926C
:10187000AF021092AE0290E00895FFCFFFCFDC01DF
:10188000ED91FC910280F381E02D6CE009950895C3
:10189000FC018189882369F081E04091AE0250917A
:1018A000AF022091AC023091AD024217530779F09C
:1018B000089581E04091B4025091B5022091B202A6
:1018C0003091B3024217530799F780E0089580E002
:1018D0000895FF920F931F93CF93DF93EC018B0139
:1018E000F42E0E94390ACE010896B8014F2D0E94AD
:1018F0007B1984E892E099838883F98AFF20D9F0E4
:101900008091C90080688093C90080E290E00E94C5
:10191000180A9093B1028093B0021092AF02109215
:10192000AE021092AD021092AC02DF91CF911F91E6
:101930000F91FF9008958091C10080688093C1004D
:1019400080E290E00E94180A9093B7028093B6025A
:101950001092B5021092B4021092B3021092B20229
:10196000DF91CF911F910F91FF9008951F920F92D9
:101970000FB60F920BB60F9211242F933F938F93B4
:101980009F93EF93FF932091C600E091B602F091F0
:10199000B7028091B2029091B302E80FF91F208341
:1019A0008091B2029091B30201969093B30280931A
:1019B000B2028032910530F01092B3021092B2025E
:1019C00080E090E02091B4023091B50228173907E9
:1019D00069F0FF91EF919F918F913F912F910F901F
:1019E0000BBE0F900FBE0F901F901895019690930D
:1019F000B5028093B4028032910558F31092B5027B
:101A00001092B402E6CF1F920F920FB60F920BB650
:101A10000F9211242F933F938F939F93EF93FF93F4
:101A20002091CE00E091B002F091B1028091AC0221
:101A30009091AD02E80FF91F20838091AC02909144
:101A4000AD0201969093AD028093AC028032910575
:101A500030F01092AD021092AC0280E090E0209144
:101A6000AE023091AF022817390769F0FF91EF916C
:101A70009F918F913F912F910F900BBE0F900FBEB2
:101A80000F901F90189501969093AF028093AE022D
:101A90008032910558F31092AF021092AE02E6CF59
:101AA0000F931F93CF93DF938C010E94EC14C0918E
:101AB000B802D091B9020C0F1D1F87E10833180737
:101AC00088F4C017D10770F4C654DD4F1093B902E3
:101AD0000093B8020E941916CE01DF91CF911F9199
:101AE0000F910895C0E0D0E00E941916CE01DF9159
:101AF000CF911F910F91089508951092B9021092FD
:101B0000B802089588E397E12091B8023091B902B4
:101B1000821B930B08959093551A8093541A21E1D8
:101B2000FC012083319732E23083FC013297A3E33A
:101B3000A083FC0133976083FC0134977083FC0120
:101B400035971082FC01369760E86083FC01379777
:101B50001082FC01389762E06083FC01399763E0F2
:101B60006083FC013A9764E06083FC013B9765E089
:101B70006083FC013C9766E06083FC013D9767E071
:101B80006083FC013E9768E06083FC013F9769E059
:101B90006083FC01709760E16083FC017197208392
:101BA000FC01729722E12083FC01739723E12083DB
:101BB000FC01749724E12083FC01759725E12083C3
:101BC000FC01769726E12083FC01779727E12083AB
:101BD000FC01789728E12083FC01799729E1208393
:101BE000FC017A9720E22083FC017B9721E220838D
:101BF000FC017C973083FC017D9723E22083FC016C
:101C00007E974083FC017F975083FC01B09726E2CA
:101C10002083FC01B19727E22083FC01B29728E2E0
:101C20002083FC01B39729E22083FC01B49720E3D1
:101C30002083FC01B59721E320838697089587E0F0
:101C4000809329018FEC809328018AE08093210101
:101C5000E3E7F0E0808182608083A091F219B09187
:101C6000F319CD91CDBFDD91DEBFFF91EF91DF91F3
:101C7000CF91BF91AF919F918F917F916F915F9124
:101C80004F913F912F911F910F91FF90EF90DF9017
:101C9000CF90BF90AF909F908F907F906F905F900C
:101CA0004F903F902F901F900F900FBE0F90089570
:101CB00081E0089508950F920FB6F8940F921F9245
:101CC00011242F923F924F925F926F927F928F9248
:101CD0009F92AF92BF92CF92DF92EF92FF920F93BB
:101CE0001F932F933F934F935F936F937F938F93A4
:101CF0009F93AF93BF93CF93DF93EF93FF93A09105
:101D0000F219B091F3190DB60D920EB60D920E9414
:101D10003317A091F219B091F319CD91CDBFDD9198
:101D2000DEBFFF91EF91DF91CF91BF91AF919F9176
:101D30008F917F916F915F914F913F912F911F9163
:101D40000F91FF90EF90DF90CF90BF90AF909F905A
:101D50008F907F906F905F904F903F902F901F904B
:101D60000F900FBE0F9008950F920FB6F8940F9238
:101D70001F9211242F923F924F925F926F927F9207
:101D80008F929F92AF92BF92CF92DF92EF92FF928B
:101D90000F931F932F933F934F935F936F937F9373
:101DA0008F939F93AF93BF93CF93DF93EF93FF9363
:101DB000A091F219B091F3190DB60D920EB60D92D5
:101DC0000E9427150E943317A091F219B091F319C0
:101DD000CD91CDBFDD91DEBFFF91EF91DF91CF912E
:101DE000BF91AF919F918F917F916F915F914F9133
:101DF0003F912F911F910F91FF90EF90DF90CF9027
:101E0000BF90AF909F908F907F906F905F904F901A
:101E10003F902F901F900F900FBE0F9008950E943B
:101E2000B40E1895CF93DF93FC01A081B181109778
:101E300089F040A126813781240F311D3783268305
:101E4000C281D3812C173D0740F4CB01B90150E08A
:101E50000E949E1BDF91CF910895B783A6839D01B9
:101E6000F4CF0F931F93CF93DF93EC010FB6F89449
:101E70000F928AA11816DCF48B898823C1F08E0199
:101E80000D5E1F4F08C08AA181508AA318167CF4EA
:101E90008B89882361F0C8010E94B117882399F3C8
:101EA0000E9477188AA181508AA318168CF38FEFAD
:101EB0008AA30F900FBE0FB6F8940F9289A118163F
:101EC000DCF488858823C1F08E01085F1F4F08C0AD
:101ED00089A1815089A318167CF48885882361F034
:101EE000C8010E94B117882399F30E94771889A12D
:101EF000815089A318168CF38FEF89A30F900FBE22
:101F0000DF91CF911F910F910895CF93DF93EC0153
:101F100028A1222359F488819981009709F446C0A9
:101F20008E8D8F5F8E8FDF91CF9108954423E1F4E2
:101F30008C819D81422F50E00E949E1B28A18C81A4
:101F40009D81820F911D9D838C832A813B81821705
:101F5000930730F3888199819D838C838E8D8F5F69
:101F60008E8FDF91CF9108958E819F81422F50E017
:101F70000E949E1B48A150E0509541955F4F8E8175
:101F80009F81840F951F9F838E83288139818217BB
:101F9000930730F68A819B81840F951F9F838E83E0
:101FA0008E8D8F5F8E8FDF91CF9108958A819B8177
:101FB0000E94FE181B821A82B3CFCF93DF93EC01ED
:101FC000613051F09B898885882321F080E0DF9182
:101FD000CF9108959923D1F7488159818F8D68A1B8
:101FE000869F90011124240F351F3B832A831E8E68
:101FF0005D834C8370E090E00197689F9001699F3A
:10200000300D789F300D1124240F351F3F832E8310
:102010008FEF89A38AA3CE0108960E94131ACE01DE
:1020200043960E94131A81E0DF91CF9108950F9398
:102030001F93CF93DF93182F062F8823F1F083E2AD
:1020400090E00E94500DEC010097B9F0109F9001B4
:102050001124C90101960E94500D9983888300972D
:1020600099F01F8F08A3CE0161E00E94DD0FCE0121
:10207000DF91CF911F910F91089580E090E0DF9163
:10208000CF911F910F910895CE010E947C0D80E0A9
:1020900090E0EECFFC010FB6F8940F928081918111
:1020A000009729F4828193810F900FBE089580E0FC
:1020B00090E00F900FBE0895AF92BF92CF92DF9243
:1020C000EF92FF920F93CF93DF93CDB7DEB72997AF
:1020D0000FB6F894DEBF0FBECDBF7C015B012E832F
:1020E0003F834887598720E0E8E0CE2ED12CC80EE8
:1020F000D91E0FB6F8940F92F701968D878D981719
:1021000008F456C08E819F81A885B9850097A105E6
:10211000B10509F469C0222369F10F900FBE0E9436
:10212000EC140FB6F8940F92F70181A18F3F39F1AB
:10213000F70182A18F3F41F10F900FBECE010196B2
:10214000BE016A5F7F4F0E941018882309F050C0BB
:102150000FB6F8940F92F701968D0F900FBEF7010E
:10216000878D981799F0C7010E94310F0E941916A8
:1021700021E0BFCFCE0101960E94FF17CECF11A262
:10218000F70182A18F3FC1F612A2D6CF4E815F81A7
:1021900068857985C6010E948717C7010E94310FA3
:1021A0000E941916882321F70E945B0E21E0A1CF1F
:1021B000C701B501402F0E94850FF701838988234D
:1021C000F1F40F900FBE81E029960FB6F894DEBFB0
:1021D0000FBECDBFDF91CF910F91FF90EF90DF90B9
:1021E000CF90BF90AF9008950F900FBE80E0ECCFDE
:1021F000C7010E94310F0E94191680E0E5CFC70188
:1022000043960E94B1178130E1F60E945B0ED9CF50
:102210000F93CF93DF9383E290E00E94500DEC0187
:10222000009701F11B821A82198218821D821C827A
:102230001F821E821E8E81E08F8F18A28FEF89A3CE
:102240008AA3CE0108960E94131ACE0143960E94DB
:10225000131ACE0160E070E020E030E0A90100E058
:102260000E945C10CE01DF91CF910F9108950F93E2
:102270001F93CF93DF93EC018A019E8D8F8D98176A
:1022800030F080E0DF91CF911F910F910895CE0142
:10229000422F0E94850F8AA18F3F41F08F5F8AA352
:1022A00081E0DF91CF911F910F9108958B89882351
:1022B00011F481E0E7CFCE0143960E94B117882345
:1022C000C1F381E0F8018083DDCFAF92BF92DF924E
:1022D000EF92FF920F931F93CF93DF93CDB7DEB7AB
:1022E00029970FB6F894DEBF0FBECDBF7C015B010E
:1022F0002E833F8348875987D02E20E08C010D5EC6
:102300001F4F0FB6F8940F92F701868D882309F0BE
:102310006AC08E819F81A885B9850097A105B10506
:1023200009F47EC0222309F43FC00F900FBE0E9423
:10233000EC140FB6F8940F92F70181A18F3F09F4C6
:102340003FC0F70182A18F3F09F440C00F900FBE3C
:10235000CE010196BE016A5F7F4F0E94101888234C
:1023600009F071C00FB6F8940F92F701868D0F90A7
:102370000FBE8823F1F4F70180819181009741F12C
:102380004E815F8168857985C8010E948717C701E2
:102390000E94310F0E941916882311F021E0B1CF5D
:1023A0000E945B0E21E0ADCFCE0101960E94FF1787
:1023B000BCCFC7010E94310F0E94191621E0A1CFA6
:1023C00011A2F70182A18F3F09F0C0CF12A2BECFA8
:1023D0000FB6F8940F92F701828193810E949818AA
:1023E0000F900FBECDCF06811781C701B5010E94A6
:1023F000120FF701DD2071F5868D8150868F808167
:1024000091810097B9F1F7018085882341F1C701D7
:1024100008960E94B117813011F50E945B0E1FC013
:102420000F900FBE80E029960FB6F894DEBF0FBE66
:10243000CDBFDF91CF911F910F91FF90EF90DF9073
:10244000BF90AF900895C7010E94310F0E941916E6
:1024500080E0E9CF178306838389882321F40F90D6
:102460000FBE81E0E0CFC70143960E94B1178823D9
:10247000B1F3D3CF0E949318F70193838283C3CF24
:102480000F931F93CF93DF93EC018A018E8D8823E6
:1024900031F480E0DF91CF911F910F910895CE012B
:1024A0000E94120F8E8D81508E8F89A18F3F41F037
:1024B0008F5F89A381E0DF91CF911F910F910895E4
:1024C0008885882311F481E0E5CFCE0108960E942B
:1024D000B1178823C1F381E0F8018083DBCF0FB609
:1024E000F8940F92FC01868D0F900FBE0895FC01A9
:1024F000868D0895CF93DF93EC01888199810E94A6
:102500007C0DCE010E947C0DDF91CF910895FC01DE
:10251000968D81E0911180E00895FC01268D81E087
:10252000978D291380E008958091031A8230E0F39B
:102530000E945B0EF9CFCF92DF92EF92FF926B0178
:102540007C01E091F219F091F31962837383848323
:1025500095838091FA199091FB19A091FC19B09183
:10256000FD19C816D906EA06FB0630F18091011A5A
:102570009091021A6091F2197091F3196E5F7F4F7A
:102580000E944F1A8091950290919602A091970215
:10259000B0919802C816D906EA06FB0640F4C0922C
:1025A0009502D0929602E0929702F0929802FF90E4
:1025B000EF90DF90CF9008958091FF199091001ACD
:1025C0006091F2197091F3196E5F7F4F0E944F1A5C
:1025D000FF90EF90DF90CF9008954F925F926F92AF
:1025E0007F928F929F92AF92BF92CF92DF92EF92A3
:1025F000FF920F931F93CF93DF932C014B015A014E
:102600003901D02F88E290E00E94500D8C01009794
:1026100009F4BAC0C114D10409F4F7C0FC01D48E86
:10262000C38EC60161E170E0A5010E94A71BC50130
:102630000197F801C38CD48CC80ED91EC8014D96E1
:10264000B4014AE050E00E94AE1BF80116A2CD2F63
:10265000D43008F093C0F801C28FC7A3B2E0AB2E0C
:10266000B12CA00EB11EC5010E94241AC8010E96FD
:102670000E94241AF8011387028784E090E0A0E00A
:10268000B0E08C1B9109A109B10986879787A08BBF
:10269000B18B178B068BC601B201A3010E948B0D73
:1026A000F80191838083E114F10419F0F70111839B
:1026B00000830FB6F8940F928091FE198F5F80937C
:1026C000FE198091F2199091F319009709F45EC0F8
:1026D0008091F819882359F4E091F219F091F319D7
:1026E000828DD81720F01093F3190093F219F80196
:1026F000228D8091501A821710F42093501A8091E5
:10270000511A8F5F8093511A8091F919821798F1AD
:1027100030E0C901880F991FA901440F551F440FCC
:10272000551F440F551F840F951F820F931F8D5FF8
:10273000954EB5010E94281A0F900FBE8091F8198E
:10274000882339F0E091F219F091F319828D8D17F9
:10275000B8F081E0DF91CF911F910F91FF90EF9042
:10276000DF90CF90BF90AF909F908F907F906F90B1
:102770005F904F9008952093F919CACFC3E06BCFB3
:102780000E945B0E81E0E6CF8FEFE4CF1093F31948
:102790000093F2198091FE19813009F0A8CFCC2462
:1027A000DD24C601880F991F9601220F331F220FC7
:1027B000331F220F331F820F931F8C0D9D1D8D5FC2
:1027C000954E0E94131A0894C11CD11CF4E0CF1638
:1027D000D10439F77FE2E72E7AE1F72EC7010E9494
:1027E000131AEAE3CE2EEAE1DE2EC6010E94131A86
:1027F00085E49AE10E94131AF092021AE092011AFB
:10280000D092001AC092FF1972CFC5010E94500DDC
:102810006C01F801948F838F009709F002CFC801F3
:102820000E947C0D8FEF96CF0FB6F8940F92009711
:1028300029F0FC010F900FBE828D0895E091F219EE
:10284000F091F3190F900FBE828D0895EF92FF92D1
:102850001F93CF93DF93E62F643008F0E3E00FB6C9
:10286000F8940F922091F2193091F319821793077F
:1028700009F448C0009709F445C0EC012FA12E17B8
:1028800071F111E02E1798F5009799F18A8D2817AC
:10289000A1F1EFA344E050E060E070E04E1B51096D
:1028A000610971094E875F87688B798B822F90E071
:1028B000AC01440F551F9C01220F331F220F331F01
:1028C000220F331F420F531F480F591F4D5F554EA4
:1028D0008C859D8584179507E1F0113081F00F906C
:1028E0000FBEDF91CF911F91FF90EF900895009759
:1028F00069F210E08A8D281761F6EA8FCACF0E942C
:102900005B0EEDCFC091F219D091F31980E090E009
:10291000B5CF82E0E82EF12CEC0EFD1EC7010E941F
:10292000A31A2A8D8091F919821710F42093F919AE
:1029300030E0C901880F991FA901440F551F440FAA
:10294000551F440F551F840F951F820F931F8D5FD6
:10295000954EB7010E94281AC0CFAF92BF92CF9276
:10296000DF92EF92FF920F9384E992E160E972E0C7
:1029700044E650E020E030E000E0F2E5EF2EFAE13E
:10298000FF2ECC24DD24AA24BB240E94ED1281302A
:1029900041F00F91FF90EF90DF90CF90BF90AF90FC
:1029A0000895F8948093F8191092FA191092FB196F
:1029B0001092FC191092FD190E941F0E0F91FF90AA
:1029C000EF90DF90CF90BF90AF900895F894109261
:1029D000F8190E945A0E08958091F7198F5F80931D
:1029E000F71908950F931F930FB6F8940F92009163
:1029F000FA191091FB192091FC193091FD190F90D3
:102A00000FBEB801C9011F910F9108950F931F9335
:102A10000091FA191091FB192091FC193091FD19C0
:102A2000B801C9011F910F9108958091FE19089571
:102A3000009711F04D9608958091F2199091F31935
:102A40004D9608958091521A9091531A08950F93BC
:102A50001F93CF93DF938091F719882309F093C0D8
:102A60008091FA199091FB19A091FC19B091FD1970
:102A70000196A11DB11D8093FA199093FB19A093A3
:102A8000FC19B093FD198091FA199091FB19A0914E
:102A9000FC19B091FD190097A105B10509F47DC09D
:102AA0008091950290919602A0919702B091980220
:102AB0004091FA195091FB196091FC197091FD1920
:102AC000481759076A077B0708F045C061C0E091C5
:102AD000011AF091021A0780F085E02DC085D1859A
:102AE0008A819B81AC81BD814091FA195091FB197B
:102AF0006091FC197091FD19481759076A077B0707
:102B000008F48AC08E010E5F1F4FC8010E94A31AED
:102B1000888D998D009721F0CE010E960E94A31A00
:102B20002A8D8091F919821710F42093F91930E059
:102B3000C901880F991FA901440F551F440F551F44
:102B4000440F551F840F951F820F931F8D5F954E65
:102B5000B8010E94281AE091011AF091021A8081AE
:102B6000882309F0B4CF8FEF9FEFDC0180939502AB
:102B700090939602A0939702B0939802DF91CF9121
:102B80001F910F9108958091F6198F5F8093F61928
:102B9000DF91CF911F910F9108958091011A90912B
:102BA000021A2091FF193091001A3093021A2093D3
:102BB000011A9093001A8093FF198091F4198F5F86
:102BC0008093F419E091011AF091021A8081882310
:102BD00061F48FEF9FEFDC01809395029093960252
:102BE000A0939702B093980263CFE091011AF091FD
:102BF000021A0780F085E02D0084F185E02D8281A6
:102C00009381A481B5818093950290939602A093BD
:102C10009702B09398024CCF8093950290939602BE
:102C2000A0939702B0939802DF91CF911F910F91DB
:102C30000895EF92FF920F931F93CF93DF930F921C
:102C4000CDB7DEB70FB6F8940F928091F719815087
:102C50008093F7198091F719882309F064C0809157
:102C6000FE19882309F455C019828091451A8823DA
:102C700009F43FC0E0914C1AF0914D1AE084F184C0
:102C8000C7010E960E94A31A87010E5F1F4FC8014D
:102C90000E94A31AD7015A962C915A978091F9193C
:102CA000821710F42093F91930E0C901880F991F99
:102CB000A901440F551F440F551F440F551F840F82
:102CC000951F820F931F8D5F954EB8010E94281AA1
:102CD000E091F219F091F319D7015A969C915A9705
:102CE000828D981710F2B1E0B9838091451A88233C
:102CF00009F68091F6198823C1F4E981E13021F0C9
:102D00008091F519813079F41092F5190E945B0ECB
:102D100081E00F900FBE0F90DF91CF911F910F9127
:102D2000FF90EF90089580E0F4CF8091F61988230A
:102D300059F30E9427158091F61981508093F61956
:102D40008091F6198823A9F7DFCFCF92DF92EF9217
:102D5000FF92DC01CB010097A105B10539F40E9477
:102D60005B0EFF90EF90DF90CF9008952091F719C0
:102D70002F5F2093F719C090FA19D090FB19E090BB
:102D8000FC19F090FD19C80ED91EEA1EFB1E809199
:102D9000F2199091F31902960E94A31AC701B60185
:102DA0000E949B120E9419168823C9F2FF90EF908F
:102DB000DF90CF900895CF92DF92EF92FF92FC01C7
:102DC0006A017B018091F7198F5F8093F7198081E9
:102DD0009181A281B381C80ED91EEA1EFB1E4091CB
:102DE000FA195091FB196091FC197091FD1948175F
:102DF00059076A077B0760F5C816D906EA06FB067D
:102E000068F58091FA199091FB19A091FC19B09185
:102E1000FD198C159D05AE05BF0500F5C082D18258
:102E2000E282F3828091F2199091F31902960E9446
:102E3000A31AC701B6010E949B120E94191688238B
:102E400011F40E945B0EFF90EF90DF90CF900895F9
:102E5000C816D906EA06FB0608F3D3CFC082D18292
:102E6000E282F382EACF8091F719882331F044C0DF
:102E70008091F91981508093F9198091F91990E0A6
:102E8000FC01EE0FFF1F9C01220F331F220F331F87
:102E9000220F331FE20FF31FE80FF91FED5FF54E0E
:102EA0008081882329F38091F91990E0FC01EE0FCD
:102EB000FF1F9C01220F331F220F331F220F331FCE
:102EC000E20FF31FE80FF91FED5FF54EA181B2810C
:102ED00014960D90BC91A02DB283A183CF010396CF
:102EE000A817B90769F018968D919C91199790933E
:102EF000F3198093F219089581E08093F5190895EC
:102F000014960D90BC91A02DB283A183ECCFCF92EB
:102F1000DF92EF92FF926A017B016091F21970914A
:102F2000F319625F7F4F0E944F1A8091F2199091BE
:102F3000F31902960E94A31A8091FA199091FB1935
:102F4000A091FC19B091FD198C0D9D1DAE1DBF1DEA
:102F5000BC01CD010E949B12FF90EF90DF90CF90BB
:102F600008950F931F93CF93DF93DC011796ED9194
:102F7000FC91189700851185E8012E96CE010E94DC
:102F8000A31A8091F719882389F5E8012296CE01CA
:102F90000E94A31AF801228D8091F919821760F11D
:102FA00030E0C901880F991FA901440F551F440F34
:102FB000551F440F551F840F951F820F931F8D5F60
:102FC000954EBE010E94281AE091F219F091F31972
:102FD00081E0D8015A962C915A97928D291708F4BE
:102FE00080E0DF91CF911F910F91089585E49AE1E0
:102FF000BE010E94281AE8CF2093F919D1CFFC0115
:103000008091F41980834091FA195091FB196091D5
:10301000FC197091FD194183528363837483089571
:103020000F931F93CF93DF93FC01EB010FB6F8943E
:103030000F928091F4199081981709F453C08181FF
:103040009281A381B4814091FA195091FB1960914A
:10305000FC197091FD19481759076A077B07D0F5CD
:103060004091FA195091FB196091FC197091FD196A
:10307000088119812A813B81481B590B6A0B7B0B04
:10308000401751076207730728F54091FA195091CC
:10309000FB196091FC197091FD19041B150B260B8F
:1030A000370B080F191F2A1F3B1F088319832A8318
:1030B0003B838091F41980838091FA199091FB19D8
:1030C000A091FC19B091FD1981839283A383B483ED
:1030D00080E001C081E00F900FBEDF91CF911F9182
:1030E0000F91089581819281A381B481B9CF81E04C
:1030F0008093F5190895009779F0FC01038CF48D05
:10310000E02D8081813169F4319680E090E0019674
:1031100021912131E1F30895E091F219F091F31931
:10312000EDCF80E008958091F2199091F319089500
:103130000F931F93CF93DF93EC018A8DE091F219E7
:10314000F091F319928D891768F5E091F219F091D9
:10315000F319928D44E050E060E070E0491B5109A2
:10316000610971094E875F87688B798B90E0AC01AC
:10317000440F551F9C01220F331F220F331F220FB4
:10318000331F420F531F480F591F4D5F554E8C85FB
:103190009D858417950759F0E091F219F091F31984
:1031A000828D8A8FDF91CF911F910F9108958E01AB
:1031B0000E5F1F4FC8010E94A31AE091F219F0910F
:1031C000F319228D2A8F8091F919821710F4209318
:1031D000F91930E0C901880F991FA901440F551F43
:1031E000440F551F440F551F840F951F820F931FC7
:1031F0008D5F954EB8010E94281AD4CF0F931F936C
:10320000CF93DF93EC01009781F19A8D8FA19817EE
:1032100061F18E010E5F1F4FC8010E94A31A2FA1FA
:103220002A8F84E090E0A0E0B0E0821B9109A10920
:10323000B1098E879F87A88BB98B8091F919821766
:10324000C8F030E0C901880F991FA901440F551F2C
:10325000440F551F440F551F840F951F820F931F56
:103260008D5F954EB8010E94281ADF91CF911F9172
:103270000F9108952093F919E4CFCF92DF92EF9246
:10328000FF92CF93DF93EC01688179818A819B81E2
:1032900028EEC22E23E0D22EE12CF12CA7019601BC
:1032A0000E945D1B20E432E44FE050E00E942A1BA4
:1032B000A70196010E945D1B69017A016C817D81E5
:1032C00080E090E020E432E44FE050E00E942A1BCE
:1032D00020E834E84EE150E00E945D1BC20ED31E90
:1032E000E41EF51EB601C701DF91CF91FF90EF906C
:1032F000DF90CF9008950F931F93CF93DF93EC014E
:10330000442309F445C08EEC90E09983888388ECCF
:1033100090E09B838A8389EC90E09D838C8388E195
:103320008093C90086E08093CA001092CD008B0183
:1033300020E030E0000F111F221F331F000F111F6C
:10334000221F331F000F111F221F331F000F111FD9
:10335000221F331F60E074E284EF90E0A90198011E
:103360000E945D1B2093CC008091C80081608093F7
:10337000C80080E28E8380E88F8380E48887E881BC
:10338000F98180818081DF91CF911F910F91089504
:1033900086EC90E09983888380EC90E09B838A831D
:1033A00081EC90E09D838C8388E18093C10086E06E
:1033B0008093C2001092C5008B0120E030E0000F26
:1033C000111F221F331F000F111F221F331F000F59
:1033D000111F221F331F000F111F221F331F60E018
:1033E00074E284EF90E0A90198010E945D1B209394
:1033F000C4008091C00081608093C000BACFFC01FE
:10340000A281B3819C918681982381E009F480E0B8
:103410000895FC01A281B3819C918085982381E06D
:1034200009F080E00895FC010396928381834FEFB9
:103430005FEFBA01438354836583768390878783E4
:103440009287818710820895FC0113861286089561
:10345000CF93DF93EC01FB0189819A81DC01149603
:103460002D913C91159735832483978386831496F9
:103470002D913C911597D90117967C936E931697D1
:10348000DC0115967C936E9314977A836983D387B6
:10349000C28788818F5F8883DF91CF910895CF9213
:1034A000DF92EF92FF92CF93DF939C01EB01488173
:1034B00059816A817B814F3F8FEF58078FEF6807F3
:1034C0008FEF7807D1F1F9013396D90117968D91D5
:1034D0009C911897DC01CD90DD90ED90FC901397B6
:1034E0004C155D056E057F0578F00480F581E02DB3
:1034F000A481B5818D919D910D90BC91A02D48170F
:1035000059076A077B0788F7A481B581BD83AC831F
:103510001796DC93CE931697FF83EE83D583C483EF
:103520003B872A87F90180818F5F8083DF91CF916C
:10353000FF90EF90DF90CF900895D9011996ED910B
:10354000FC911A97E1CFCF93DF93FC01A481B58161
:103550008681978117969C938E931697C681D78103
:10356000BD83AC83A285B38511968D919C911297F2
:103570008E179F0741F0138612868C9181508C9391
:10358000DF91CF9108951296DC93CE931197138615
:1035900012868C9181508C93DF91CF9108950F9377
:1035A0001F93CF93DF93CDB7DEB762970FB6F89432
:1035B000DEBF0FBECDBF14BE88E10FB6F894809376
:1035C0006000109260000FBECE01019660E875E2C7
:1035D00041E00E94690CCE01019667E00E94880AD2
:1035E0006AE00E94880A8C016CEC70E00E94470A35
:1035F000C80166E00E94880A82E190E00E94100AF9
:1036000060E072E042E028E131E08E010F5F1F4F81
:103610000E9485040E94AD1480E090E062960FB68F
:10362000F894DEBF0FBECDBFDF91CF911F910F91F8
:1036300008950F931F938AE992E060E270E040E002
:1036400050E00AE010E020E030E00E94A4081F9162
:103650000F910895629FD001739FF001829FE00D4A
:10366000F11D649FE00DF11D929FF00D839FF00D01
:10367000749FF00D659FF00D9927729FB00DE11DAD
:10368000F91F639FB00DE11DF91FBD01CF0111248A
:103690000895AA1BBB1B51E107C0AA1FBB1FA61799
:1036A000B70710F0A61BB70B881F991F5A95A9F7EB
:1036B00080959095BC01CD010895A1E21A2EAA1B18
:1036C000BB1BFD010DC0AA1FBB1FEE1FFF1FA217D2
:1036D000B307E407F50720F0A21BB30BE40BF50BCF
:1036E000661F771F881F991F1A9469F76095709558
:1036F000809590959B01AC01BD01CF01089597FB8A
:10370000092E05260ED057FD04D0D7DF0AD0001CA5
:1037100038F450954095309521953F4F4F4F5F4F6E
:103720000895F6F790958095709561957F4F8F4F2E
:103730009F4F08950790F691E02D0994FB01DC015D
:1037400002C001900D9241505040D8F70895DC011D
:1037500001C06D9341505040E0F70895FB01DC013A
:103760004150504048F001900D920020C9F701C02F
:103770001D9241505040E0F70895FA01CF93FF9316
:10378000EF932230CCF02532BCF4C22F2C2F3327FC
:1037900044275527FF93EF930E945D1BEF91FF9104
:1037A000605D6A330CF0695D6193B901CA016050D4
:1037B00070408040904051F710828F919F91CF913F
:1037C0000C94F81BFB019F01423074F0453264F405
:1037D000642F77270E94491B805D8A330CF0895D36
:1037E0008193CB010097A1F71082C9010C94F81BBB
:1037F000DC01FC01672F71917723E1F7329704C058
:103800007C916D9370836291AE17BF07C8F30895E2
:04381000F894FFCF5A
:10381400427269676874000000000029031B0700F6
:1038240000000059041B07412F4420636F6E73741A
:10383400727563746F72204F4B0041444D55583A72
:1038440020004144435352413A20004D6F746F723B
:103854002064726976657220636F6E737472756327
:10386400746F72204F4B00000000002F0A1B0700EA
:10387400000000300A86087B085B08370A380A0013
:10388400000000300A2F0A350A320A370A380A03C0
:1038940000000000300ADC0B480CF70B370A3F0C21
:0A38A40049444C4500FFFFFFFF0000
:00000001FF
