:100000000C94D4000C9405010C9405010C9405018A
:100010000C9405010C9405010C9405010C94050148
:100020000C9405010C9405010C9405010C94050138
:100030000C9405010C9405010C9405010C94050128
:100040000C9405010C9405010C9405010C94050118
:100050000C9405010C9405010C9405010C94050108
:100060000C9405010C9403080C9405010C940501F3
:100070000C9405010C9405010C9405010C940501E8
:100080000C9405010C9405010C9405010C940501D8
:100090000C9450080C9405010C9405010C94050176
:1000A0000C9405010C9405010C9405010C940501B8
:1000B0000C9405010C9405010C9405010C945C0A48
:1000C0000C9405010C9405010C9405014D45343048
:1000D00035204C61622031205374617274696E67FF
:1000E0002050726F6772616D005461736B20002045
:1000F00063726561746564002C20737461636B20A6
:100100006174203078004552524F5220637265610D
:1001100074696E67207461736B20004552524F52B0
:1001200020696E207461736B20005265736574746E
:10013000696E6700090009002F0009000900546179
:10014000736B0909202009200009537461636B0057
:100150004E616D6509095072692E095374617465A9
:100160000009467265652F546F74616C0009527501
:100170006E73002D2D2D2D09092D2D2D2D092D2DC1
:100180002D2D2D00092D2D2D2D2D2D2D2D2D2D001D
:10019000092D2D2D2D0049444C45090930092D0903
:1001A000002F00090900281611241FBECFEFD1E24D
:1001B000DEBFCDBF12E0A0E0B2E0EEEBFDE200E07A
:1001C0000BBF02C007900D92AA39B107D9F71BBE29
:1001D0001AE1AAE9B2E001C01D92A635B107E1F724
:1001E00011E0C8EAD1E000E006C022970109FE0153
:1001F0000BBF0E946F16C63AD10780E00807A9F727
:100200001BBE0E94DE150C94DD160C940000CF93EB
:10021000DF9300D000D0CDB7DEB72C010E943F1095
:10022000DC01CB0189839A83AB83BC8384E090E0BB
:100230000E945D053C0100D00F92F201668177813A
:100240002BE0F22EEDB7FEB7F1828AE890E09383BF
:100250008283C30147E250E026E004E210E030E28E
:10026000E32E30E8C32ED12C39EAA32E31E8832EB9
:10027000912C0E942D020F900F900F9084E090E03F
:100280000E945D0500D00F92F20166817781EDB783
:10029000FEB7F18228E830E0338322834AE250E05F
:1002A00020E7EE246894E4F80E942D0280E18DB9E5
:1002B00081E380939000F09291000F900F900F9047
:1002C000C3010E946902CE01019644E650E060E05D
:1002D00070E00E942812F4CF0F931F93CF93DF9307
:1002E000EC010E9497028BE092E099838883DF9172
:1002F000CF911F910F910895CF93DF93FC017183EC
:10030000608380E480937C0080917C00828385E818
:1003100080937A00C081D181209749F0CE016FE0AF
:1003200072E00E949405CE0166E00E94D505DF913F
:10033000CF910895FC01828180937C0080917C00A4
:10034000682B60937C0080917A00806480937A00AF
:1003500080917A0086FF1BC090E09F5F80917A00B9
:1003600086FD0CC080917800409179009134C9F0ED
:10037000342F20E090E0822B932B0895913469F77D
:1003800080917800809179008FEF9FEF08958091A0
:10039000780090917900392F20E090E0822B932B08
:1003A00008958FEF9FEF0895DF92EF92FF920F93E2
:1003B0001F93CF93DF938C01F62ED42E80E2841707
:1003C000E0F480E2D82EEE24C0E0D0E0C8016F2D2A
:1003D0000E949A01C80FD91FE394ED14B9F76D2D4F
:1003E000CE0170E00E943916CB01DF91CF911F91B1
:1003F0000F91FF90EF90DF900895442321F7C0E024
:10040000D0E0EDCFCF93DF93D82FC92F62E272E017
:100410000E9494058D2F9C2F60E00E94D50560916D
:100420007C000E94A60666E00E94D5058D2F9C2FB9
:100430006AE272E00E9494058D2F9C2F60E00E947A
:10044000D50560917A000E94A60666E00E94D50557
:100450008D2F9C2FDF91CF9108958F929F92AF9215
:10046000CF92DF92EF920F931F93CF93DF93CDB78D
:10047000DEB7FC01718360838E859F8593838283C1
:10048000DA012C93D801EC92D601AC928D85D4017F
:100490008C93A281B38111961C921E9200811181CE
:1004A0000115110549F0C80163E372E00E9494054B
:1004B000C80166E00E94D505DF91CF911F910F9191
:1004C000EF90DF90CF90AF909F908F900895089518
:1004D0000895CF93DF93FC01C081D181209779F0FB
:1004E000CE016FE472E00E949405609184007091E7
:1004F0008500CE010E94260666E00E94D505DF91A8
:10050000CF910895EC01E881F9810190F081E02D0F
:1005100009951B821A826FEF7FEFCB010E94F211C7
:10052000FACF0E948202FC016487658708952F92AA
:100530003F924F925F926F927F928F929F92AF9273
:10054000BF92CF92DF92EF92FF920F931F93CF93C0
:10055000DF93CDB7DEB72A970FB6F894DEBF0FBE94
:10056000CDBF4C01DB01D42E190128018BE592E0AF
:10057000F401918380832C91222309F47BC03E01F6
:100580000894611C711C1196CE010A96F301219307
:100590003E2F36192D91222309F067C0832F90E05A
:1005A000860D971DFC01108222E0E22EF12CE80C52
:1005B000F91C81E992E0B301A10194010D2DCC2435
:1005C000DD24AA24BB240E943A0EF40157824682FD
:1005D000318620862091AA023091AB023583248394
:1005E0009092AB028092AA02148615862091541A2A
:1005F0003091551A2F5F3F4F3093551A2093541A5C
:100600003387228716861786108A118A411451046F
:1006100099F08130B1F1C2016AE00E94D5057C01F8
:1006200066E071E00E949405C701B3010E94940541
:10063000C70166E00E94D5052A960FB6F894DEBF82
:100640000FBECDBFDF91CF911F910F91FF90EF9023
:10065000DF90CF90BF90AF909F908F907F906F90E2
:100660005F904F903F902F900895E817F90709F099
:100670008ECF94CF80E090E03E010894611C711C05
:100680008FCFC2016AE00E94D5057C0169EE70E05F
:100690000E949405C701B3010E949405C7016AE056
:1006A0000E94D5057C016FEE70E00E949405C701A1
:1006B0006AE00E94D5057C0168EF70E00E94940515
:1006C000C70163E00E94D505F401628573850E942D
:1006D000260662E00E94D50566E00E94D505ACCFF3
:1006E000EC018E819F816AE00E94D5058C016BE14F
:1006F00071E00E9494058A819B810E946510BC0173
:10070000C8010E949405C8016AE00E94D505EC0169
:100710006AE271E00E949405CE0166E00E94D50570
:100720002BE088E190E00FB6F894A89580936000E4
:100730000FBE20936000FFCF0F931F93CF93DF93E3
:100740008C01EB01FC01828193810E946510BC0148
:10075000CE010E949405E881F9810280F381E02DA9
:10076000CE0169E00995F801828193810E946510AC
:10077000DC010D900020E9F71197A81BB90BA830F8
:10078000B10540F4E881F9810280F381E02DCE01CA
:1007900069E00995F801828193810E94610F682FB9
:1007A000CE010E94A6066AE00E94D505EC0164E332
:1007B00071E00E949405CE01F80164850E94A606AE
:1007C0006AE00E94D505EC0166E371E00E949405A1
:1007D000F801828193810E94C813682FCE010E9484
:1007E000A6066AE00E94D505EC0168E371E00E946C
:1007F0009405F80160857185CE010E9426066AE0A5
:100800000E94D505EC016AE371E00E949405CE01D7
:100810006AE00E94D505EC016CE371E00E9494054A
:10082000F8014685578560897189CE010E9460066E
:10083000DF91CF911F910F9108950F931F93CF9345
:10084000DF93EC018B01E881F9810280F381E02DD7
:10085000CE01B8010995C80166E00E94D5050C805B
:10086000DD81C02D209779F7DF91CF911F910F91F6
:100870000895CF93DF93D82FC92FDB01ED91FC9121
:100880000280F381E02DCB016D2F7C2F09958D2FF8
:100890009C2FDF91CF9108950F931F93CF93DF93F8
:1008A0008C016AE00E94D505EC016EE371E00E94C4
:1008B0009405CE016AE00E94D505EC0169E471E07F
:1008C0000E949405CE0166E00E94D505C8016AE049
:1008D0000E94D505EC0160E571E00E949405CE010F
:1008E0006AE00E94D505EC0161E671E00E94940582
:1008F000CE016AE00E94D505EC016DE671E00E9430
:100900009405CE0166E00E94D505C8016AE00E9408
:10091000D505EC0163E771E00E949405CE016AE021
:100920000E94D505EC0164E871E00E949405CE01B7
:100930006AE00E94D505EC0160E971E00E9494052F
:10094000CE0166E00E94D5058091AA029091AB028B
:10095000009719F0B8010E941D04C8016AE00E94C6
:10096000D505EC0166E971E00E9494050E946F10C4
:100970000E94C813682FCE010E94A6066AE00E945A
:10098000D505EC0161EA71E00E949405CE0164E6B0
:1009900070E00E9426066AE00E94D505EC0163EA39
:1009A00071E00E949405CE0166E00E94D505DF91BA
:1009B000CF911F910F9108950F93CF93DF930F92D3
:1009C000CDB7DEB7FC0180859185BE016F5F7F4F9B
:1009D0002FEF3FEFA90100E00E94B20C813049F4F3
:1009E0008981992787FD90950F90DF91CF910F9185
:1009F00008958FEF9FEFF8CFFC01808591850E94CD
:100A0000BC0D91E0882309F490E0892F08950F939D
:100A1000CF93DF930F92CDB7DEB7FC0169832285B8
:100A200033854485558580859185BE016F5F7F4FF5
:100A300000E00E94A90B91E0882309F490E0892F3F
:100A40000F90DF91CF910F9108958F929F92AF9267
:100A5000BF92CF92DF92EF92FF920F931F93CF93AB
:100A6000DF930F92CDB7DEB74C015A0168017901CF
:100A700069830E94860583E692E0F4019183808376
:100A8000B786A6866981862F61E040E00E94640BEC
:100A9000F40191878087C286D386E486F5860F901D
:100AA000DF91CF911F910F91FF90EF90DF90CF904A
:100AB000BF90AF909F908F9008950E949D080895D9
:100AC000009711F00E94C90808950E949D0808959A
:100AD000009711F00E94C908089521E030E0FC0160
:100AE0008081882311F020E030E0C901089521E0E1
:100AF000FC01208308950895089581E0089580E021
:100B000090E0089580E0089508950895FC0183E73A
:100B100092E0918380838AE08283138283E08583DD
:100B200014821782168208950F931F93CF93DF9339
:100B30008C01EB01DC0114968C9114978823A1F4AD
:100B40006881662361F02196D801ED91FC910280C5
:100B5000F381E02DC801099569916623A9F7DF911A
:100B6000CF911F910F910895F8011482FB016491B8
:100B70006623A9F32196F801A081B1811296ED9127
:100B8000FC911397C8010995FE0121966491662393
:100B900091F7DF91CF911F910F910895883008F060
:100BA00087E080937F0289E00895CF93DF93EC0183
:100BB000643009F448C06530D8F0673081F168309E
:100BC00010F5653051F1663079F4E881F9810280E1
:100BD000F381E02D6DE00995E881F9810280F381D0
:100BE000E02DCE016AE00995CE01DF91CF91089505
:100BF000613031F1613070F06230C1F06330A1F7E3
:100C000080E18A83F1CF6830A1F06A3069F781E032
:100C10008C83EACF82E08A83E7CF1B82E5CFE8812D
:100C2000F9810284F385E02D0995DECF8AE08A837D
:100C3000DBCFE881F9810084F185E02D0995D4CFDF
:100C400088E08A83D1CF81E08B83CECFFF920F9350
:100C50001F93CF93DF93CDB7DEB761970FB6F894AC
:100C6000DEBF0FBECDBF8C01F62EFC0142814031AC
:100C700099F0483089F0423079F0862F972FBE01E5
:100C80006F5F7F4F50E00E94B716C801BE016F5FD3
:100C90007F4F0E94940507C0C801672F0E94A606D7
:100CA0006F2D0E94A606C80161960FB6F894DEBFAC
:100CB0000FBECDBFDF91CF911F910F91FF9008958F
:100CC000FF920F931F93CF93DF93CDB7DEB7A39718
:100CD0000FB6F894DEBF0FBECDBF8C01F62E372FB6
:100CE000FC0122812031A1F0283091F0223081F0E6
:100CF000BA018F2D932FAE014F5F5F4F30E00E94FE
:100D00009216C801BE016F5F7F4F0E94940511C00B
:100D1000C801632F4BA35AA30E94A6066F2D0E9401
:100D2000A6065AA1652F0E94A6064BA1642F0E9419
:100D3000A606C801A3960FB6F894DEBF0FBECDBFBE
:100D4000DF91CF911F910F91FF900895CF92DF9285
:100D5000EF92FF920F931F93CF93DF93CDB7DEB740
:100D600029970FB6F894DEBF0FBECDBF6C01062FDA
:100D7000DC0113968C911397882309F05EC0F6016D
:100D800042814230E1F14031F1F0862F90E0BE0126
:100D90006F5F7F4F50E00E94B716C601BE016F5FC4
:100DA0007F4F0E949405C60129960FB6F894DEBFC6
:100DB0000FBECDBFDF91CF911F910F91FF90EF90AC
:100DC000DF90CF90089562956F700190F081E02DD3
:100DD0000280F381E02D6A30C0F5605DC60109959F
:100DE0000F70D601ED91FC9111970280F381E02DF7
:100DF000602F0A3060F1695CC6010995D4CF88E0A4
:100E0000E82EF12C10E80AC0C60161E30995169599
:100E10000894E108F108E114F10429F2812F8023FC
:100E2000D601ED91FC9111970280F381E02D88238A
:100E300059F7C60160E30995EACFED91FC91028074
:100E4000F381E02DC6010995AECF695CC7CF605D27
:100E5000D3CFFC01A285B3858C913685832341F4E1
:100E600081E29EE402C0019769F02C912323D9F31B
:100E70008C919089892B8C930084F185E02D60837F
:100E800081E0089580E00895FC018189882309F5B7
:100E90002091B4023091B5028091B2029091B302D8
:100EA00028173907C1F1E091B602F091B702E20FBD
:100EB000F31F80812F5F3F4F3093B5022093B40220
:100EC0002032310520F01092B5021092B40290E069
:100ED00008952091AE023091AF028091AC029091C2
:100EE000AD0282179307B1F0E091B002F091B10228
:100EF000E20FF31F80812F5F3F4F3093AF022093AB
:100F0000AE022032310518F31092AF021092AE02F9
:100F100090E00895FFCFFFCFDC01ED91FC910280BE
:100F2000F381E02D6CE009950895FC018189882307
:100F300069F081E04091AE025091AF022091AC0285
:100F40003091AD024217530779F0089581E0409146
:100F5000B4025091B5022091B2023091B30242170F
:100F6000530799F780E0089580E00895FF920F936A
:100F70001F93CF93DF93EC018B01F42E0E94860523
:100F8000CE010896B8014F2D0E948A1484E892E0A1
:100F900099838883F98AFF20D9F08091C9008068FD
:100FA0008093C90080E290E00E9465059093B102B1
:100FB0008093B0021092AF021092AE021092AD0276
:100FC0001092AC02DF91CF911F910F91FF90089585
:100FD0008091C10080688093C10080E290E00E940F
:100FE00065059093B7028093B6021092B5021092F5
:100FF000B4021092B3021092B202DF91CF911F910E
:101000000F91FF9008951F920F920FB60F920BB69B
:101010000F9211242F933F938F939F93EF93FF93FE
:101020002091C600E091B602F091B7028091B20221
:101030009091B302E80FF91F20838091B202909142
:10104000B30201969093B3028093B202803291056D
:1010500030F01092B3021092B20280E090E0209142
:10106000B4023091B5022817390769F0FF91EF916A
:101070009F918F913F912F910F900BBE0F900FBEBC
:101080000F901F90189501969093B5028093B4022B
:101090008032910558F31092B5021092B402E6CF57
:1010A0001F920F920FB60F920BB60F9211242F932F
:1010B0003F938F939F93EF93FF932091CE00E09106
:1010C000B002F091B1028091AC029091AD02E80FB4
:1010D000F91F20838091AC029091AD02019690930C
:1010E000AD028093AC028032910530F01092AD02D7
:1010F0001092AC0280E090E02091AE023091AF02FD
:101100002817390769F0FF91EF919F918F913F91D7
:101110002F910F900BBE0F900FBE0F901F90189540
:1011200001969093AF028093AE028032910558F3FE
:101130001092AF021092AE02E6CF0F931F93CF939F
:10114000DF938C010E943910C091B802D091B9028E
:101150000C0F1D1F87E10833180788F4C017D1074B
:1011600070F4C654DD4F1093B9020093B8020E9488
:101170006611CE01DF91CF911F910F910895C0E0CC
:10118000D0E00E946611CE01DF91CF911F910F91A7
:10119000089508951092B9021092B802089588E354
:1011A00097E12091B8023091B902821B930B089508
:1011B0009093551A8093541A21E1FC0120833197B2
:1011C00032E23083FC013297A3E3A083FC01339722
:1011D0006083FC0134977083FC0135971082FC0119
:1011E000369760E86083FC0137971082FC013897DE
:1011F00062E06083FC01399763E06083FC013A9709
:1012000064E06083FC013B9765E06083FC013C97F0
:1012100066E06083FC013D9767E06083FC013E97D8
:1012200068E06083FC013F9769E06083FC01709790
:1012300060E16083FC0171972083FC01729722E1D9
:101240002083FC01739723E12083FC01749724E140
:101250002083FC01759725E12083FC01769726E128
:101260002083FC01779727E12083FC01789728E110
:101270002083FC01799729E12083FC017A9720E201
:101280002083FC017B9721E22083FC017C97308343
:10129000FC017D9723E22083FC017E974083FC01C3
:1012A0007F975083FC01B09726E22083FC01B19721
:1012B00027E22083FC01B29728E22083FC01B39748
:1012C00029E22083FC01B49720E32083FC01B59739
:1012D00021E320838697089587E0809329018FEC8E
:1012E000809328018AE080932101E3E7F0E0808188
:1012F00082608083A091F219B091F319CD91CDBF96
:10130000DD91DEBFFF91EF91DF91CF91BF91AF9162
:101310009F918F917F916F915F914F913F912F910D
:101320001F910F91FF90EF90DF90CF90BF90AF9003
:101330009F908F907F906F905F904F903F902F90F5
:101340001F900F900FBE0F90089581E008950895AB
:101350000F920FB6F8940F921F9211242F923F9282
:101360004F925F926F927F928F929F92AF92BF92B5
:10137000CF92DF92EF92FF920F931F932F933F93A1
:101380004F935F936F937F938F939F93AF93BF938D
:10139000CF93DF93EF93FF93A091F219B091F319DC
:1013A0000DB60D920EB60D920E948012A091F21908
:1013B000B091F319CD91CDBFDD91DEBFFF91EF91DB
:1013C000DF91CF91BF91AF919F918F917F916F915D
:1013D0005F914F913F912F911F910F91FF90EF904F
:1013E000DF90CF90BF90AF909F908F907F906F9045
:1013F0005F904F903F902F901F900F900FBE0F90D7
:1014000008950F920FB6F8940F921F9211242F9205
:101410003F924F925F926F927F928F929F92AF9284
:10142000BF92CF92DF92EF92FF920F931F932F9371
:101430003F934F935F936F937F938F939F93AF935C
:10144000BF93CF93DF93EF93FF93A091F219B091E5
:10145000F3190DB60D920EB60D920E9474100E94F3
:101460008012A091F219B091F319CD91CDBFDD9109
:10147000DEBFFF91EF91DF91CF91BF91AF919F912F
:101480008F917F916F915F914F913F912F911F911C
:101490000F91FF90EF90DF90CF90BF90AF909F9013
:1014A0008F907F906F905F904F903F902F901F9004
:1014B0000F900FBE0F9008950E94010A1895CF93C8
:1014C000DF93FC01A081B181109789F040A12681B2
:1014D0003781240F311D37832683C281D3812C1796
:1014E0003D0740F4CB01B90150E00E947316DF9133
:1014F000CF910895B783A6839D01F4CF0F931F93D7
:10150000CF93DF93EC010FB6F8940F928AA11816CF
:10151000DCF48B898823C1F08E010D5E1F4F08C05B
:101520008AA181508AA318167CF48B89882361F0E4
:10153000C8010E94FE12882399F30E94C4138AA155
:1015400081508AA318168CF38FEF8AA30F900FBED9
:101550000FB6F8940F9289A11816DCF488858823B9
:10156000C1F08E01085F1F4F08C089A1815089A377
:1015700018167CF48885882361F0C8010E94FE1249
:10158000882399F30E94C41389A1815089A3181656
:101590008CF38FEF89A30F900FBEDF91CF911F9136
:1015A0000F910895CF93DF93EC0128A1222359F4E2
:1015B00088819981009709F446C08E8D8F5F8E8F48
:1015C000DF91CF9108954423E1F48C819D81422FD6
:1015D00050E00E94731628A18C819D81820F911D7D
:1015E0009D838C832A813B818217930730F3888106
:1015F00099819D838C838E8D8F5F8E8FDF91CF91AC
:1016000008958E819F81422F50E00E94731648A159
:1016100050E0509541955F4F8E819F81840F951FBB
:101620009F838E83288139818217930730F68A81C0
:101630009B81840F951F9F838E838E8D8F5F8E8FEE
:10164000DF91CF9108958A819B810E944B141B8268
:101650001A82B3CFCF93DF93EC01613051F09B89B5
:101660008885882321F080E0DF91CF910895992328
:10167000D1F7488159818F8D68A1869F90011124EF
:10168000240F351F3B832A831E8E5D834C8370E0BD
:1016900090E00197689F9001699F300D789F300D11
:1016A0001124240F351F3F832E838FEF89A38AA334
:1016B000CE0108960E942215CE0143960E94221563
:1016C00081E0DF91CF9108950F931F93CF93DF9324
:1016D000182F062F8823F1F083E290E00E949D08E6
:1016E000EC010097B9F0109F90011124C9010196F7
:1016F0000E949D0899838883009799F01F8F08A303
:10170000CE0161E00E942A0BCE01DF91CF911F91A3
:101710000F91089580E090E0DF91CF911F910F919C
:101720000895CE010E94C90880E090E0EECFFC0150
:101730000FB6F8940F9280819181009729F48281ED
:1017400093810F900FBE089580E090E00F900FBE40
:101750000895AF92BF92CF92DF92EF92FF920F93D4
:10176000CF93DF93CDB7DEB729970FB6F894DEBFDE
:101770000FBECDBF7C015B012E833F834887598715
:1017800020E0E8E0CE2ED12CC80ED91E0FB6F8947A
:101790000F92F701968D878D981708F456C08E81A9
:1017A0009F81A885B9850097A105B10509F469C095
:1017B000222369F10F900FBE0E9439100FB6F894E2
:1017C0000F92F70181A18F3F39F1F70182A18F3F7D
:1017D00041F10F900FBECE010196BE016A5F7F4FAF
:1017E0000E945D13882309F050C00FB6F8940F9241
:1017F000F701968D0F900FBEF701878D981799F01E
:10180000C7010E947E0A0E94661121E0BFCFCE016F
:1018100001960E944C13CECF11A2F70182A18F3FF7
:10182000C1F612A2D6CF4E815F8168857985C60147
:101830000E94D412C7010E947E0A0E94661188236A
:1018400021F70E94A80921E0A1CFC701B501402FCF
:101850000E94D20AF70183898823F1F40F900FBE0A
:1018600081E029960FB6F894DEBF0FBECDBFDF91A1
:10187000CF910F91FF90EF90DF90CF90BF90AF90FE
:1018800008950F900FBE80E0ECCFC7010E947E0A42
:101890000E94661180E0E5CFC70143960E94FE12C8
:1018A0008130E1F60E94A809D9CF0F93CF93DF933F
:1018B00083E290E00E949D08EC01009701F11B82F9
:1018C0001A82198218821D821C821F821E821E8E1D
:1018D00081E08F8F18A28FEF89A38AA3CE0108968B
:1018E0000E942215CE0143960E942215CE0160E08F
:1018F00070E020E030E0A90100E00E94A90BCE01D9
:10190000DF91CF910F9108950F931F93CF93DF93A2
:10191000EC018A019E8D8F8D981730F080E0DF9169
:10192000CF911F910F910895CE01422F0E94D20AAC
:101930008AA18F3F41F08F5F8AA381E0DF91CF9131
:101940001F910F9108958B89882311F481E0E7CFCF
:10195000CE0143960E94FE128823C1F381E0F80174
:101960008083DDCFAF92BF92DF92EF92FF920F9311
:101970001F93CF93DF93CDB7DEB729970FB6F894B7
:10198000DEBF0FBECDBF7C015B012E833F83488746
:101990005987D02E20E08C010D5E1F4F0FB6F894B2
:1019A0000F92F701868D882309F06AC08E819F818E
:1019B000A885B9850097A105B10509F47EC0222349
:1019C00009F43FC00F900FBE0E9439100FB6F89473
:1019D0000F92F70181A18F3F09F43FC0F70182A167
:1019E0008F3F09F440C00F900FBECE010196BE019B
:1019F0006A5F7F4F0E945D13882309F071C00FB6A4
:101A0000F8940F92F701868D0F900FBE8823F1F4A2
:101A1000F70180819181009741F14E815F81688556
:101A20007985C8010E94D412C7010E947E0A0E94D3
:101A30006611882311F021E0B1CF0E94A80921E0AE
:101A4000ADCFCE0101960E944C13BCCFC7010E94BE
:101A50007E0A0E94661121E0A1CF11A2F70182A1A6
:101A60008F3F09F0C0CF12A2BECF0FB6F8940F92ED
:101A7000F701828193810E94E5130F900FBECDCFB5
:101A800006811781C701B5010E945F0AF701DD20B9
:101A900071F5868D8150868F808191810097B9F193
:101AA000F7018085882341F1C70108960E94FE1244
:101AB000813011F50E94A8091FC00F900FBE80E071
:101AC00029960FB6F894DEBF0FBECDBFDF91CF9140
:101AD0001F910F91FF90EF90DF90BF90AF9008950E
:101AE000C7010E947E0A0E94661180E0E9CF178339
:101AF00006838389882321F40F900FBE81E0E0CF15
:101B0000C70143960E94FE128823B1F3D3CF0E94EF
:101B1000E013F70193838283C3CF0F931F93CF9377
:101B2000DF93EC018A018E8D882331F480E0DF9110
:101B3000CF911F910F910895CE010E945F0A8E8D63
:101B400081508E8F89A18F3F41F08F5F89A381E003
:101B5000DF91CF911F910F9108958885882311F40B
:101B600081E0E5CFCE0108960E94FE128823C1F3E2
:101B700081E0F8018083DBCF0FB6F8940F92FC016F
:101B8000868D0F900FBE0895FC01868D0895CF932A
:101B9000DF93EC01888199810E94C908CE010E94DF
:101BA000C908DF91CF910895FC01968D81E09111D4
:101BB00080E00895FC01268D81E0978D291380E057
:101BC00008958091031A8230E0F30E94A809F9CFAA
:101BD000CF92DF92EF92FF926B017C01E091F219BC
:101BE000F091F31962837383848395838091FA194A
:101BF0009091FB19A091FC19B091FD19C816D90656
:101C0000EA06FB0630F18091011A9091021A609168
:101C1000F2197091F3196E5F7F4F0E945E158091EB
:101C2000950290919602A0919702B0919802C816E1
:101C3000D906EA06FB0640F4C0929502D0929602BD
:101C4000E0929702F0929802FF90EF90DF90CF9091
:101C500008958091FF199091001A6091F219709186
:101C6000F3196E5F7F4F0E945E15FF90EF90DF903B
:101C7000CF9008954F925F926F927F928F929F9232
:101C8000AF92BF92CF92DF92EF92FF920F931F938A
:101C9000CF93DF932C014B015A013901D02F88E2F9
:101CA00090E00E949D088C01009709F4BAC0C1140D
:101CB000D10409F4F7C0FC01D48EC38EC60161E1E2
:101CC00070E0A5010E947C16C5010197F801C38C44
:101CD000D48CC80ED91EC8014D96B4014AE050E01C
:101CE0000E948316F80116A2CD2FD43008F093C0BD
:101CF000F801C28FC7A3B2E0AB2EB12CA00EB11E6B
:101D0000C5010E943315C8010E960E943315F801D3
:101D10001387028784E090E0A0E0B0E08C1B91097B
:101D2000A109B10986879787A08BB18B178B068B8A
:101D3000C601B201A3010E94D808F80191838083F3
:101D4000E114F10419F0F701118300830FB6F89440
:101D50000F928091FE198F5F8093FE198091F21986
:101D60009091F319009709F45EC08091F8198823C7
:101D700059F4E091F219F091F319828DD81720F0FF
:101D80001093F3190093F219F801228D8091501AE3
:101D9000821710F42093501A8091511A8F5F80930C
:101DA000511A8091F919821798F130E0C901880F12
:101DB000991FA901440F551F440F551F440F551F6C
:101DC000840F951F820F931F8D5F954EB5010E9462
:101DD00037150F900FBE8091F819882339F0E091E4
:101DE000F219F091F319828D8D17B8F081E0DF912F
:101DF000CF911F910F91FF90EF90DF90CF90BF9008
:101E0000AF909F908F907F906F905F904F900895CC
:101E10002093F919CACFC3E06BCF0E94A80981E0D3
:101E2000E6CF8FEFE4CF1093F3190093F21980916E
:101E3000FE19813009F0A8CFCC24DD24C601880F1B
:101E4000991F9601220F331F220F331F220F331FBA
:101E5000820F931F8C0D9D1D8D5F954E0E94221544
:101E60000894C11CD11CF4E0CF16D10439F77FE2ED
:101E7000E72E7AE1F72EC7010E942215EAE3CE2E63
:101E8000EAE1DE2EC6010E94221585E49AE10E9455
:101E90002215F092021AE092011AD092001AC09212
:101EA000FF1972CFC5010E949D086C01F801948F43
:101EB000838F009709F002CFC8010E94C9088FEFF5
:101EC00096CF0FB6F8940F92009729F0FC010F906F
:101ED0000FBE828D0895E091F219F091F3190F90E1
:101EE0000FBE828D0895EF92FF921F93CF93DF93E1
:101EF000E62F643008F0E3E00FB6F8940F922091DB
:101F0000F2193091F3198217930709F448C000972A
:101F100009F445C0EC012FA12E1771F111E02E1725
:101F200098F5009799F18A8D2817A1F1EFA344E065
:101F300050E060E070E04E1B5109610971094E8765
:101F40005F87688B798B822F90E0AC01440F551F1F
:101F50009C01220F331F220F331F220F331F420F0A
:101F6000531F480F591F4D5F554E8C859D85841713
:101F70009507E1F0113081F00F900FBEDF91CF9106
:101F80001F91FF90EF900895009769F210E08A8DFD
:101F9000281761F6EA8FCACF0E94A809EDCFC09139
:101FA000F219D091F31980E090E0B5CF82E0E82EED
:101FB000F12CEC0EFD1EC7010E94B2152A8D8091F6
:101FC000F919821710F42093F91930E0C901880F2C
:101FD000991FA901440F551F440F551F440F551F4A
:101FE000840F951F820F931F8D5F954EB7010E943E
:101FF0003715C0CFAF92BF92CF92DF92EF92FF9290
:102000000F9381EE9DE060E972E044E650E020E04D
:1020100030E000E0F2E5EF2EFAE1FF2ECC24DD24E3
:10202000AA24BB240E943A0E813041F00F91FF9008
:10203000EF90DF90CF90BF90AF900895F894809389
:10204000F8191092FA191092FB191092FC191092BB
:10205000FD190E946C090F91FF90EF90DF90CF90D7
:10206000BF90AF900895F8941092F8190E94A709B4
:1020700008958091F7198F5F8093F71908950F9352
:102080001F930FB6F8940F920091FA191091FB1953
:102090002091FC193091FD190F900FBEB801C901B4
:1020A0001F910F9108950F931F930091FA191091AA
:1020B000FB192091FC193091FD19B801C9011F913C
:1020C0000F9108958091FE190895009711F04D9693
:1020D00008958091F2199091F3194D960895809189
:1020E000521A9091531A08950F931F93CF93DF9331
:1020F0008091F719882309F093C08091FA19909183
:10210000FB19A091FC19B091FD190196A11DB11DFB
:102110008093FA199093FB19A093FC19B093FD19C1
:102120008091FA199091FB19A091FC19B091FD19B9
:102130000097A105B10509F47DC0809195029091A9
:102140009602A0919702B09198024091FA1950918D
:10215000FB196091FC197091FD19481759076A071E
:102160007B0708F045C061C0E091011AF091021AA6
:102170000780F085E02DC085D1858A819B81AC8167
:10218000BD814091FA195091FB196091FC19709131
:10219000FD19481759076A077B0708F48AC08E01A2
:1021A0000E5F1F4FC8010E94B215888D998D009750
:1021B00021F0CE010E960E94B2152A8D8091F91958
:1021C000821710F42093F91930E0C901880F991F84
:1021D000A901440F551F440F551F440F551F840F6D
:1021E000951F820F931F8D5F954EB8010E94371582
:1021F000E091011AF091021A8081882309F0B4CF8E
:102200008FEF9FEFDC018093950290939602A0934D
:102210009702B0939802DF91CF911F910F9108958B
:102220008091F6198F5F8093F619DF91CF911F91FE
:102230000F9108958091011A9091021A2091FF192F
:102240003091001A3093021A2093011A9093001AC9
:102250008093FF198091F4198F5F8093F419E091B6
:10226000011AF091021A8081882361F48FEF9FEFA9
:10227000DC018093950290939602A0939702B0930D
:10228000980263CFE091011AF091021A0780F0855D
:10229000E02D0084F185E02D82819381A481B581B8
:1022A0008093950290939602A0939702B093980220
:1022B0004CCF8093950290939602A0939702B0938F
:1022C0009802DF91CF911F910F910895EF92FF92A5
:1022D0000F931F93CF93DF930F92CDB7DEB70FB657
:1022E000F8940F928091F71981508093F71980919B
:1022F000F719882309F064C08091FE19882309F436
:1023000055C019828091451A882309F43FC0E09195
:102310004C1AF0914D1AE084F184C7010E960E9488
:10232000B21587010E5F1F4FC8010E94B215D70179
:102330005A962C915A978091F919821710F420938C
:10234000F91930E0C901880F991FA901440F551FE1
:10235000440F551F440F551F840F951F820F931F65
:102360008D5F954EB8010E943715E091F219F091FA
:10237000F319D7015A969C915A97828D981710F2AB
:10238000B1E0B9838091451A882309F68091F61946
:102390008823C1F4E981E13021F08091F519813081
:1023A00079F41092F5190E94A80981E00F900FBEF0
:1023B0000F90DF91CF911F910F91FF90EF900895B3
:1023C00080E0F4CF8091F619882359F30E947410AD
:1023D0008091F61981508093F6198091F61988231F
:1023E000A9F7DFCFCF92DF92EF92FF92DC01CB0112
:1023F0000097A105B10539F40E94A809FF90EF905C
:10240000DF90CF9008952091F7192F5F2093F7194F
:10241000C090FA19D090FB19E090FC19F090FD19CA
:10242000C80ED91EEA1EFB1E8091F2199091F31975
:1024300002960E94B215C701B6010E94E80D0E94E3
:1024400066118823C9F2FF90EF90DF90CF90089536
:10245000CF92DF92EF92FF92FC016A017B018091A3
:10246000F7198F5F8093F71980819181A281B381E1
:10247000C80ED91EEA1EFB1E4091FA195091FB1995
:102480006091FC197091FD19481759076A077B077D
:1024900060F5C816D906EA06FB0668F58091FA19B8
:1024A0009091FB19A091FC19B091FD198C159D0517
:1024B000AE05BF0500F5C082D182E282F382809131
:1024C000F2199091F31902960E94B215C701B60154
:1024D0000E94E80D0E946611882311F40E94A80949
:1024E000FF90EF90DF90CF900895C816D906EA06C6
:1024F000FB0608F3D3CFC082D182E282F382EACF17
:102500008091F719882331F044C08091F9198150E6
:102510008093F9198091F91990E0FC01EE0FFF1FEB
:102520009C01220F331F220F331F220F331FE20F94
:10253000F31FE80FF91FED5FF54E8081882329F323
:102540008091F91990E0FC01EE0FFF1F9C01220F12
:10255000331F220F331F220F331FE20FF31FE80F29
:10256000F91FED5FF54EA181B28114960D90BC91DB
:10257000A02DB283A183CF010396A817B90769F0F4
:1025800018968D919C9119979093F3198093F21955
:10259000089581E08093F519089514960D90BC91EB
:1025A000A02DB283A183ECCFCF92DF92EF92FF9266
:1025B0006A017B016091F2197091F319625F7F4F9C
:1025C0000E945E158091F2199091F31902960E9473
:1025D000B2158091FA199091FB19A091FC19B09154
:1025E000FD198C0D9D1DAE1DBF1DBC01CD010E94AE
:1025F000E80DFF90EF90DF90CF9008950F931F9319
:10260000CF93DF93DC011796ED91FC91189700852D
:102610001185E8012E96CE010E94B2158091F7191E
:10262000882389F5E8012296CE010E94B215F801AF
:10263000228D8091F919821760F130E0C901880F6D
:10264000991FA901440F551F440F551F440F551FD3
:10265000840F951F820F931F8D5F954EBE010E94C0
:102660003715E091F219F091F31981E0D8015A96EB
:102670002C915A97928D291708F480E0DF91CF9121
:102680001F910F91089585E49AE1BE010E943715CC
:10269000E8CF2093F919D1CFFC018091F419808300
:1026A0004091FA195091FB196091FC197091FD1934
:1026B000418352836383748308950F931F93CF9351
:1026C000DF93FC01EB010FB6F8940F928091F4199F
:1026D0009081981709F453C081819281A381B481BC
:1026E0004091FA195091FB196091FC197091FD19F4
:1026F000481759076A077B07D0F54091FA1950919E
:10270000FB196091FC197091FD19088119812A81CA
:102710003B81481B590B6A0B7B0B40175107620723
:10272000730728F54091FA195091FB196091FC1933
:102730007091FD19041B150B260B370B080F191F81
:102740002A1F3B1F088319832A833B838091F41936
:1027500080838091FA199091FB19A091FC19B09196
:10276000FD1981839283A383B48380E001C081E05B
:102770000F900FBEDF91CF911F910F91089581812E
:102780009281A381B481B9CF81E08093F519089536
:10279000009779F0FC01038CF48DE02D808181316C
:1027A00069F4319680E090E0019621912131E1F3C6
:1027B0000895E091F219F091F319EDCF80E00895BA
:1027C0008091F2199091F31908950F931F93CF936D
:1027D000DF93EC018A8DE091F219F091F319928D5B
:1027E000891768F5E091F219F091F319928D44E0A0
:1027F00050E060E070E0491B5109610971094E87A2
:102800005F87688B798B90E0AC01440F551F9C016A
:10281000220F331F220F331F220F331F420F531F6C
:10282000480F591F4D5F554E8C859D858417950720
:1028300059F0E091F219F091F319828D8A8FDF91AE
:10284000CF911F910F9108958E010E5F1F4FC80108
:102850000E94B215E091F219F091F319228D2A8F9E
:102860008091F919821710F42093F91930E0C90109
:10287000880F991FA901440F551F440F551F440F7E
:10288000551F840F951F820F931F8D5F954EB801C2
:102890000E943715D4CF0F931F93CF93DF93EC0192
:1028A000009781F19A8D8FA1981761F18E010E5FCB
:1028B0001F4FC8010E94B2152FA12A8F84E090E01B
:1028C000A0E0B0E0821B9109A109B1098E879F8722
:1028D000A88BB98B8091F9198217C8F030E0C90133
:1028E000880F991FA901440F551F440F551F440F0E
:1028F000551F840F951F820F931F8D5F954EB80152
:102900000E943715DF91CF911F910F910895209369
:10291000F919E4CF0F931F93CF93DF93EC01442376
:1029200009F445C08EEC90E09983888388EC90E0B0
:102930009B838A8389EC90E09D838C8388E18093DC
:10294000C90086E08093CA001092CD008B0120E080
:1029500030E0000F111F221F331F000F111F221F15
:10296000331F000F111F221F331F000F111F221FC3
:10297000331F60E074E284EF90E0A90198010E94A7
:102980004D162093CC008091C80081608093C800D0
:1029900080E28E8380E88F8380E48887E881F981F4
:1029A00080818081DF91CF911F910F91089586ECF6
:1029B00090E09983888380EC90E09B838A8381EC0C
:1029C00090E09D838C8388E18093C10086E08093B2
:1029D000C2001092C5008B0120E030E0000F111FF3
:1029E000221F331F000F111F221F331F000F111F43
:1029F000221F331F000F111F221F331F60E074E2DC
:102A000084EF90E0A90198010E944D162093C40024
:102A10008091C00081608093C000BACFFC01A28188
:102A2000B3819C918681982381E009F480E0089528
:102A3000FC01A281B3819C918085982381E009F0FB
:102A400080E00895FC010396928381834FEF5FEF4E
:102A5000BA01438354836583768390878783928703
:102A6000818710820895FC01138612860895CF9302
:102A7000DF93EC01FB0189819A81DC0114962D9191
:102A80003C911597358324839783868314962D91E3
:102A90003C911597D90117967C936E931697DC019C
:102AA00015967C936E9314977A836983D387C28734
:102AB00088818F5F8883DF91CF910895CF92DF92D5
:102AC000EF92FF92CF93DF939C01EB0148815981F4
:102AD0006A817B814F3F8FEF58078FEF68078FEF39
:102AE0007807D1F1F9013396D90117968D919C9110
:102AF0001897DC01CD90DD90ED90FC9013974C156C
:102B00005D056E057F0578F00480F581E02DA481D8
:102B1000B5818D919D910D90BC91A02D48175907BD
:102B20006A077B0788F7A481B581BD83AC831796BC
:102B3000DC93CE931697FF83EE83D583C4833B87C4
:102B40002A87F90180818F5F8083DF91CF91FF9089
:102B5000EF90DF90CF900895D9011996ED91FC91F7
:102B60001A97E1CFCF93DF93FC01A481B5818681D1
:102B7000978117969C938E931697C681D781BD83B4
:102B8000AC83A285B38511968D919C9112978E1777
:102B90009F0741F0138612868C9181508C93DF91B0
:102BA000CF9108951296DC93CE93119713861286D7
:102BB0008C9181508C93DF91CF9108950F931F9347
:102BC000CF93DF93CDB7DEB762970FB6F894DEBF31
:102BD0000FBECDBF14BE88E10FB6F894809360009D
:102BE000109260000FBECE01019660E875E241E0F0
:102BF0000E94B607CE01019667E00E94D5056AE003
:102C00000E94D5058C016CEC70E00E949405C8010F
:102C100066E00E94D50582E190E00E945D0560E0DB
:102C200072E042E028E131E08E010F5F1F4F0E9409
:102C30006C010E94FA0F80E090E062960FB6F89463
:102C4000DEBF0FBECDBFDF91CF911F910F910895D1
:102C50000F931F938AE992E060E270E040E050E059
:102C60000AE010E020E030E00E9425051F910F915E
:102C70000895AA1BBB1B51E107C0AA1FBB1FA617C3
:102C8000B70710F0A61BB70B881F991F5A95A9F715
:102C900080959095BC01CD010895A1E21A2EAA1B42
:102CA000BB1BFD010DC0AA1FBB1FEE1FFF1FA217FC
:102CB000B307E407F50720F0A21BB30BE40BF50BF9
:102CC000661F771F881F991F1A9469F76095709582
:102CD000809590959B01AC01BD01CF0108950790AF
:102CE000F691E02D0994FB01DC0102C001900D92E8
:102CF00041505040D8F70895DC0101C06D93415018
:102D00005040E0F70895FB01DC014150504048F08D
:102D100001900D920020C9F701C01D924150504012
:102D2000E0F70895FA01CF93FF93EF932230CCF0B0
:102D30002532BCF4C22F2C2F332744275527FF936D
:102D4000EF930E944D16EF91FF91605D6A330CF096
:102D5000695D6193B901CA01605070408040904044
:102D600051F710828F919F91CF910C94CD16FB015A
:102D70009F01423074F0453264F4642F77270E943B
:102D80003916805D8A330CF0895D8193CB01009701
:102D9000A1F71082C9010C94CD16DC01FC01672F4C
:102DA00071917723E1F7329704C07C916D93708322
:0E2DB0006291AE17BF07C8F30895F894FFCFE5
:102DBE00427269676874000000000007019C0341BD
:102DCE002F4420636F6E7374727563746F72204F2D
:102DDE004B0041444D55583A200041444353524113
:102DEE003A20004D6F746F7220647269766572209E
:102DFE00636F6E7374727563746F72204F4B0054F1
:102E0E00434E54313A2000000000007C059C030024
:102E1E000000007D050705FC04DC04840585050023
:102E2E000000007D057C0582057F05840585050370
:102E3E00000000007D0529079507440784058C07CF
:0A2E4E0049444C4500FFFFFFFF0060
:00000001FF
