:100000000C94D4000C9405010C9405010C9405018A
:100010000C9405010C9405010C9405010C94050148
:100020000C9405010C9405010C9405010C94050138
:100030000C9405010C9405010C9405010C94050128
:100040000C9405010C9405010C9405010C94050118
:100050000C9405010C9405010C9405010C94050108
:100060000C9405010C9407080C9405010C940501EF
:100070000C9405010C9405010C9405010C940501E8
:100080000C9405010C9405010C9405010C940501D8
:100090000C9454080C9405010C9405010C94050172
:1000A0000C9405010C9405010C9405010C940501B8
:1000B0000C9405010C9405010C9405010C94600A44
:1000C0000C9405010C9405010C9405014D45343048
:1000D00035204C61622031205374617274696E67FF
:1000E0002050726F6772616D005461736B20002045
:1000F00063726561746564002C20737461636B20A6
:100100006174203078004552524F5220637265610D
:1001100074696E67207461736B20004552524F52B0
:1001200020696E207461736B20005265736574746E
:10013000696E6700090009002F0009000900546179
:10014000736B0909202009200009537461636B0057
:100150004E616D6509095072692E095374617465A9
:100160000009467265652F546F74616C0009527501
:100170006E73002D2D2D2D09092D2D2D2D092D2DC1
:100180002D2D2D00092D2D2D2D2D2D2D2D2D2D001D
:10019000092D2D2D2D0049444C45090930092D0903
:1001A000002F000909002C1611241FBECFEFD1E249
:1001B000DEBFCDBF12E0A0E0B2E0E6ECFDE200E081
:1001C0000BBF02C007900D92AA39B107D9F71BBE29
:1001D0001AE1AAE9B2E001C01D92A635B107E1F724
:1001E00011E0C8EAD1E000E006C022970109FE0153
:1001F0000BBF0E947316C63AD10780E00807A9F723
:100200001BBE0E94E2150C94E1160C940000CF93E3
:10021000DF9300D000D000D0CDB7DEB79E838D83B2
:100220000E944310DC01CB0189839A83AB83BC839A
:1002300088E090E00E9461053C018DB79EB7089769
:100240000FB6F8949EBF0FBE8DBFEDB7FEB73196C7
:10025000AD81BE8116966D917C91179780E890E0F4
:10026000ADB7BEB712969C938E93119789EA82839D
:1002700081E890E0948383838BE085838AE890E033
:1002800097838683C30147E250E026E004E210E052
:1002900030E2E32E38E2C32ED12C35E0A32E36E037
:1002A000832E0E9428028DB79EB708960FB6F89449
:1002B0009EBF0FBE8DBFC3010E946D02CE0101968D
:1002C00044E650E060E070E00E942C12F4CF0F93FF
:1002D0001F93CF93DF93EC010E949B028BE092E08F
:1002E00099838883DF91CF911F910F910895CF93C8
:1002F000DF93FC017183608380E480937C008091B4
:100300007C00828385E880937A00C081D181209728
:1003100049F0CE016FE072E00E949805CE0166E0E0
:100320000E94D905DF91CF910895FC0182818093CD
:100330007C0080917C00682B60937C0080917A0027
:10034000806480937A0080917A0086FF1BC090E0E1
:100350009F5F80917A0086FD0CC08091780040916B
:1003600079009134C9F0342F20E090E0822B932B58
:100370000895913469F780917800809179008FEF2A
:100380009FEF08958091780090917900392F20E0B7
:1003900090E0822B932B08958FEF9FEF0895DF92CB
:1003A000EF92FF920F931F93CF93DF938C01F62E62
:1003B000D42E80E28417E0F480E2D82EEE24C0E050
:1003C000D0E0C8016F2D0E949501C80FD91FE3949A
:1003D000ED14B9F76D2DCE0170E00E943D16CB01F2
:1003E000DF91CF911F910F91FF90EF90DF900895D3
:1003F000442321F7C0E0D0E0EDCFCF93DF93D82F97
:10040000C92F62E272E00E9498058D2F9C2F60E058
:100410000E94D90560917C000E94AA0666E00E94B5
:10042000D9058D2F9C2F6AE272E00E9498058D2FCE
:100430009C2F60E00E94D90560917A000E94AA0674
:1004400066E00E94D9058D2F9C2FDF91CF910895F2
:100450008F92AF92CF92DF92EF920F931F93CF9331
:10046000DF93CDB7DEB7FC01718360838A899B89F6
:1004700093838283D582C482A6828782DA012C93F9
:10048000D801EC92D601AC928E85AC85BD858C935B
:100490008989AF85B8898C93A281B38180E890E087
:1004A00011969C938E93008111810115110549F0DD
:1004B000C80163E372E00E949805C80166E00E94EB
:1004C000D905DF91CF911F910F91EF90DF90CF90E1
:1004D000AF908F90089508950895CF93DF93FC0116
:1004E000C081D181209779F0CE016FE472E00E9443
:1004F00098056091840070918500CE010E942A06C3
:1005000066E00E94D905DF91CF910895EC01E88162
:10051000F9810190F081E02D09951B821A826FEF1D
:100520007FEFCB010E94F611FACF0E948602FC01F8
:100530006487658708952F923F924F925F926F92E2
:100540007F928F929F92AF92BF92CF92DF92EF9263
:10055000FF920F931F93CF93DF93CDB7DEB72A9708
:100560000FB6F894DEBF0FBECDBF4C01DB01D42E19
:10057000190128018BE592E0F401918380832C918D
:10058000222309F47BC03E010894611C711C119662
:10059000CE010A96F30121933E2F36192D91222385
:1005A00009F067C0832F90E0860D971DFC01108233
:1005B00022E0E22EF12CE80CF91C85E992E0B3016F
:1005C000A10194010D2DCC24DD24AA24BB240E947A
:1005D0003E0EF40157824682318620862091AA027F
:1005E0003091AB02358324839092AB028092AA02B1
:1005F000148615862091541A3091551A2F5F3F4F5B
:100600003093551A2093541A3387228716861786FB
:10061000108A118A4114510499F08130B1F1C2015C
:100620006AE00E94D9057C0166E071E00E949805AD
:10063000C701B3010E949805C70166E00E94D90571
:100640002A960FB6F894DEBF0FBECDBFDF91CF91D3
:100650001F910F91FF90EF90DF90CF90BF90AF90E0
:100660009F908F907F906F905F904F903F902F90D2
:100670000895E817F90709F08ECF94CF80E090E055
:100680003E010894611C711C8FCFC2016AE00E9478
:10069000D9057C0169EE70E00E949805C701B3019D
:1006A0000E949805C7016AE00E94D9057C016FEE9F
:1006B00070E00E949805C7016AE00E94D9057C019C
:1006C00068EF70E00E949805C70163E00E94D905B9
:1006D000F401628573850E942A0662E00E94D905B2
:1006E00066E00E94D905ACCFEC018E819F816AE063
:1006F0000E94D9058C016BE171E00E9498058A8106
:100700009B810E946910BC01C8010E949805C80124
:100710006AE00E94D905EC016AE271E00E94980546
:10072000CE0166E00E94D9052BE088E190E00FB68B
:10073000F894A895809360000FBE20936000FFCFCF
:100740000F931F93CF93DF938C01EB01FC01828108
:1007500093810E946910BC01CE010E949805E88136
:10076000F9810280F381E02DCE0169E00995F8015D
:10077000828193810E946910DC010D900020E9F7CD
:100780001197A81BB90BA830B10540F4E881F98195
:100790000280F381E02DCE0169E00995F8018281A4
:1007A00093810E94650F682FCE010E94AA066AE01D
:1007B0000E94D905EC0164E371E00E949805CE0126
:1007C000F80164850E94AA066AE00E94D905EC013E
:1007D00066E371E00E949805F801828193810E948E
:1007E000CC13682FCE010E94AA066AE00E94D905A8
:1007F000EC0168E371E00E949805F801608571855D
:10080000CE010E942A066AE00E94D905EC016AE343
:1008100071E00E949805CE016AE00E94D905EC01C2
:100820006CE371E00E949805F80146855785608960
:100830007189CE010E946406DF91CF911F910F91C3
:1008400008950F931F93CF93DF93EC018B01E88101
:10085000F9810280F381E02DCE01B8010995C8012C
:1008600066E00E94D9050C80DD81C02D209779F7C4
:10087000DF91CF911F910F910895CF93DF93D82FE0
:10088000C92FDB01ED91FC910280F381E02DCB01BA
:100890006D2F7C2F09958D2F9C2FDF91CF9108957F
:1008A0000F931F93CF93DF938C016AE00E94D905C9
:1008B000EC016EE371E00E949805CE016AE00E94AF
:1008C000D905EC0169E471E00E949805CE0166E06B
:1008D0000E94D905C8016AE00E94D905EC0160E5D3
:1008E00071E00E949805CE016AE00E94D905EC01F2
:1008F00061E671E00E949805CE016AE00E94D90588
:10090000EC016DE671E00E949805CE0166E00E9460
:10091000D905C8016AE00E94D905EC0163E771E0DE
:100920000E949805CE016AE00E94D905EC0164E8B6
:1009300071E00E949805CE016AE00E94D905EC01A1
:1009400060E971E00E949805CE0166E00E94D90539
:100950008091AA029091AB02009719F0B8010E9411
:100960002104C8016AE00E94D905EC0166E971E042
:100970000E9498050E9473100E94CC13682FCE012C
:100980000E94AA066AE00E94D905EC0161EA71E0C2
:100990000E949805CE0164E670E00E942A066AE093
:1009A0000E94D905EC0163EA71E00E949805CE012E
:1009B00066E00E94D905DF91CF911F910F910895B4
:1009C0000F93CF93DF930F92CDB7DEB7FC018085F5
:1009D0009185BE016F5F7F4F2FEF3FEFA90100E0D0
:1009E0000E94B60C813049F48981992787FD909542
:1009F0000F90DF91CF910F9108958FEF9FEFF8CF78
:100A0000FC01808591850E94C00D91E0882309F446
:100A100090E0892F08950F93CF93DF930F92CDB776
:100A2000DEB7FC0169832285338544855585808541
:100A30009185BE016F5F7F4F00E00E94AD0B91E09A
:100A4000882309F490E0892F0F90DF91CF910F91C7
:100A500008958F929F92AF92BF92CF92DF92EF92C2
:100A6000FF920F931F93CF93DF930F92CDB7DEB713
:100A70004C015A016801790169830E948A0583E665
:100A800092E0F40191838083B786A6866981862FE0
:100A900061E040E00E94680BF40191878087C28684
:100AA000D386E486F5860F90DF91CF911F910F9149
:100AB000FF90EF90DF90CF90BF90AF909F908F907E
:100AC00008950E94A1080895009711F00E94CD0892
:100AD00008950E94A1080895009711F00E94CD0882
:100AE000089521E030E0FC018081882311F020E0AE
:100AF00030E0C901089521E0FC01208308950895A4
:100B0000089581E0089580E090E0089580E00895E0
:100B100008950895FC0183E792E0918380838AE041
:100B20008283138283E0858314821782168208955C
:100B30000F931F93CF93DF938C01EB01DC0114968D
:100B40008C9114978823A1F46881662361F0219623
:100B5000D801ED91FC910280F381E02DC801099547
:100B600069916623A9F7DF91CF911F910F910895A5
:100B7000F8011482FB0164916623A9F32196F80120
:100B8000A081B1811296ED91FC911397C80109954E
:100B9000FE0121966491662391F7DF91CF911F9119
:100BA0000F910895883008F087E080937F0289E0F4
:100BB0000895CF93DF93EC01643009F448C06530A9
:100BC000D8F0673081F1683010F5653051F166304A
:100BD00079F4E881F9810280F381E02D6DE00995D7
:100BE000E881F9810280F381E02DCE016AE0099568
:100BF000CE01DF91CF910895613031F1613070F015
:100C00006230C1F06330A1F780E18A83F1CF6830B0
:100C1000A1F06A3069F781E08C83EACF82E08A83B1
:100C2000E7CF1B82E5CFE881F9810284F385E02DCF
:100C30000995DECF8AE08A83DBCFE881F9810084E1
:100C4000F185E02D0995D4CF88E08A83D1CF81E06A
:100C50008B83CECFFF920F931F93CF93DF93CDB7AC
:100C6000DEB761970FB6F894DEBF0FBECDBF8C0123
:100C7000F62EFC014281403199F0483089F0423033
:100C800079F0862F972FBE016F5F7F4F50E00E9453
:100C9000BB16C801BE016F5F7F4F0E94980507C059
:100CA000C801672F0E94AA066F2D0E94AA06C801DC
:100CB00061960FB6F894DEBF0FBECDBFDF91CF9126
:100CC0001F910F91FF900895FF920F931F93CF9361
:100CD000DF93CDB7DEB7A3970FB6F894DEBF0FBE94
:100CE000CDBF8C01F62E372FFC0122812031A1F0DF
:100CF000283091F0223081F0BA018F2D932FAE0170
:100D00004F5F5F4F30E00E949616C801BE016F5FD3
:100D10007F4F0E94980511C0C801632F4BA35AA3AF
:100D20000E94AA066F2D0E94AA065AA1652F0E9452
:100D3000AA064BA1642F0E94AA06C801A3960FB66B
:100D4000F894DEBF0FBECDBFDF91CF911F910F9101
:100D5000FF900895CF92DF92EF92FF920F931F932F
:100D6000CF93DF93CDB7DEB729970FB6F894DEBFE8
:100D70000FBECDBF6C01062FDC0113968C9113972B
:100D8000882309F05EC0F60142814230E1F1403132
:100D9000F1F0862F90E0BE016F5F7F4F50E00E9420
:100DA000BB16C601BE016F5F7F4F0E949805C6014A
:100DB00029960FB6F894DEBF0FBECDBFDF91CF915D
:100DC0001F910F91FF90EF90DF90CF900895629563
:100DD0006F700190F081E02D0280F381E02D6A3088
:100DE000C0F5605DC60109950F70D601ED91FC91CB
:100DF00011970280F381E02D602F0A3060F1695C69
:100E0000C6010995D4CF88E0E82EF12C10E80AC07D
:100E1000C60161E3099516950894E108F108E1140B
:100E2000F10429F2812F8023D601ED91FC911197D5
:100E30000280F381E02D882359F7C60160E309950C
:100E4000EACFED91FC910280F381E02DC601099576
:100E5000AECF695CC7CF605DD3CFFC01A285B385FF
:100E60008C913685832341F481E29EE402C0019790
:100E700069F02C912323D9F38C919089892B8C9341
:100E80000084F185E02D608381E0089580E008957D
:100E9000FC018189882309F52091B4023091B502C3
:100EA0008091B2029091B30228173907C1F1E09105
:100EB000B602F091B702E20FF31F80812F5F3F4F20
:100EC0003093B5022093B4022032310520F0109205
:100ED000B5021092B40290E008952091AE023091D4
:100EE000AF028091AC029091AD0282179307B1F0EE
:100EF000E091B002F091B102E20FF31F80812F5F09
:100F00003F4F3093AF022093AE022032310518F3E9
:100F10001092AF021092AE0290E00895FFCFFFCF83
:100F2000DC01ED91FC910280F381E02D6CE00995EC
:100F30000895FC018189882369F081E04091AE0227
:100F40005091AF022091AC023091AD02421753078D
:100F500079F0089581E04091B4025091B50220915A
:100F6000B2023091B3024217530799F780E0089517
:100F700080E00895FF920F931F93CF93DF93EC01CE
:100F80008B01F42E0E948A05CE010896B8014F2DE0
:100F90000E948E1484E892E099838883F98AFF2066
:100FA000D9F08091C90080688093C90080E290E008
:100FB0000E9469059093B1028093B0021092AF0233
:100FC0001092AE021092AD021092AC02DF91CF915E
:100FD0001F910F91FF9008958091C10080688093C8
:100FE000C10080E290E00E9469059093B70280936F
:100FF000B6021092B5021092B4021092B30210928F
:10100000B202DF91CF911F910F91FF9008951F922F
:101010000F920FB60F920BB60F9211242F933F939E
:101020008F939F93EF93FF932091C600E091B602B8
:10103000F091B7028091B2029091B302E80FF91FCC
:1010400020838091B2029091B30201969093B302F3
:101050008093B2028032910530F01092B302109268
:10106000B20280E090E02091B4023091B5022817DE
:10107000390769F0FF91EF919F918F913F912F91E7
:101080000F900BBE0F900FBE0F901F9018950196FA
:101090009093B5028093B4028032910558F3109278
:1010A000B5021092B402E6CF1F920F920FB60F92C4
:1010B0000BB60F9211242F933F938F939F93EF932F
:1010C000FF932091CE00E091B002F091B1028091A7
:1010D000AC029091AD02E80FF91F20838091AC0221
:1010E0009091AD0201969093AD028093AC02803254
:1010F000910530F01092AD021092AC0280E090E0C9
:101100002091AE023091AF022817390769F0FF91A4
:10111000EF919F918F913F912F910F900BBE0F9068
:101120000FBE0F901F90189501969093AF02809379
:10113000AE028032910558F31092AF021092AE02C7
:10114000E6CF0F931F93CF93DF938C010E943D1046
:10115000C091B802D091B9020C0F1D1F87E108336E
:10116000180788F4C017D10770F4C654DD4F1093E8
:10117000B9020093B8020E946A11CE01DF91CF91AB
:101180001F910F910895C0E0D0E00E946A11CE0136
:10119000DF91CF911F910F91089508951092B90298
:1011A0001092B802089588E397E12091B802309137
:1011B000B902821B930B08959093551A8093541A89
:1011C00021E1FC012083319732E23083FC01329728
:1011D000A3E3A083FC0133976083FC013497708301
:1011E000FC0135971082FC01369760E86083FC01B2
:1011F00037971082FC01389762E06083FC013997D1
:1012000063E06083FC013A9764E06083FC013B97F4
:1012100065E06083FC013C9766E06083FC013D97DC
:1012200067E06083FC013E9768E06083FC013F97C4
:1012300069E06083FC01709760E16083FC01719755
:101240002083FC01729722E12083FC01739723E144
:101250002083FC01749724E12083FC01759725E12C
:101260002083FC01769726E12083FC01779727E114
:101270002083FC01789728E12083FC01799729E1FC
:101280002083FC017A9720E22083FC017B9721E2F6
:101290002083FC017C973083FC017D9723E220832F
:1012A000FC017E974083FC017F975083FC01B0973F
:1012B00026E22083FC01B19727E22083FC01B2974C
:1012C00028E22083FC01B39729E22083FC01B49734
:1012D00020E32083FC01B59721E3208386970895BE
:1012E00087E0809329018FEC809328018AE0809326
:1012F0002101E3E7F0E0808182608083A091F21910
:10130000B091F319CD91CDBFDD91DEBFFF91EF918B
:10131000DF91CF91BF91AF919F918F917F916F910D
:101320005F914F913F912F911F910F91FF90EF90FF
:10133000DF90CF90BF90AF909F908F907F906F90F5
:101340005F904F903F902F901F900F900FBE0F9087
:10135000089581E0089508950F920FB6F8940F92C2
:101360001F9211242F923F924F925F926F927F9221
:101370008F929F92AF92BF92CF92DF92EF92FF92A5
:101380000F931F932F933F934F935F936F937F938D
:101390008F939F93AF93BF93CF93DF93EF93FF937D
:1013A000A091F219B091F3190DB60D920EB60D92EF
:1013B0000E948412A091F219B091F319CD91CDBF82
:1013C000DD91DEBFFF91EF91DF91CF91BF91AF91A2
:1013D0009F918F917F916F915F914F913F912F914D
:1013E0001F910F91FF90EF90DF90CF90BF90AF9043
:1013F0009F908F907F906F905F904F903F902F9035
:101400001F900F900FBE0F9008950F920FB6F89493
:101410000F921F9211242F923F924F925F926F92E0
:101420007F928F929F92AF92BF92CF92DF92EF9274
:10143000FF920F931F932F933F934F935F936F935D
:101440007F938F939F93AF93BF93CF93DF93EF934C
:10145000FF93A091F219B091F3190DB60D920EB64B
:101460000D920E9478100E948412A091F219B091FE
:10147000F319CD91CDBFDD91DEBFFF91EF91DF91EB
:10148000CF91BF91AF919F918F917F916F915F911C
:101490004F913F912F911F910F91FF90EF90DF900F
:1014A000CF90BF90AF909F908F907F906F905F9004
:1014B0004F903F902F901F900F900FBE0F90089568
:1014C0000E94050A1895CF93DF93FC01A081B1819A
:1014D000109789F040A126813781240F311D378371
:1014E0002683C281D3812C173D0740F4CB01B9017B
:1014F00050E00E947716DF91CF910895B783A683BD
:101500009D01F4CF0F931F93CF93DF93EC010FB6A0
:10151000F8940F928AA11816DCF48B898823C1F005
:101520008E010D5E1F4F08C08AA181508AA3181634
:101530007CF48B89882361F0C8010E940213882300
:1015400099F30E94C8138AA181508AA318168CF3BC
:101550008FEF8AA30F900FBE0FB6F8940F9289A158
:101560001816DCF488858823C1F08E01085F1F4FB0
:1015700008C089A1815089A318167CF48885882326
:1015800061F0C8010E940213882399F30E94C813D6
:1015900089A1815089A318168CF38FEF89A30F902E
:1015A0000FBEDF91CF911F910F910895CF93DF93DD
:1015B000EC0128A1222359F488819981009709F42C
:1015C00046C08E8D8F5F8E8FDF91CF91089544231B
:1015D000E1F48C819D81422F50E00E94771628A172
:1015E0008C819D81820F911D9D838C832A813B81FB
:1015F0008217930730F3888199819D838C838E8D28
:101600008F5F8E8FDF91CF9108958E819F81422FC2
:1016100050E00E94771648A150E0509541955F4FE9
:101620008E819F81840F951F9F838E8328813981AE
:101630008217930730F68A819B81840F951F9F83C1
:101640008E838E8D8F5F8E8FDF91CF9108958A81EB
:101650009B810E944F141B821A82B3CFCF93DF93DA
:10166000EC01613051F09B898885882321F080E06E
:10167000DF91CF9108959923D1F7488159818F8DBA
:1016800068A1869F90011124240F351F3B832A8374
:101690001E8E5D834C8370E090E00197689F9001FF
:1016A000699F300D789F300D1124240F351F3F8323
:1016B0002E838FEF89A38AA3CE0108960E94261558
:1016C000CE0143960E94261581E0DF91CF910895C7
:1016D0000F931F93CF93DF93182F062F8823F1F0DA
:1016E00083E290E00E94A108EC010097B9F0109FFE
:1016F00090011124C90101960E94A1089983888351
:10170000009799F01F8F08A3CE0161E00E942E0B75
:10171000CE01DF91CF911F910F91089580E090E06D
:10172000DF91CF911F910F910895CE010E94CD08B6
:1017300080E090E0EECFFC010FB6F8940F9280812C
:101740009181009729F4828193810F900FBE0895B3
:1017500080E090E00F900FBE0895AF92BF92CF92BD
:10176000DF92EF92FF920F93CF93DF93CDB7DEB767
:1017700029970FB6F894DEBF0FBECDBF7C015B0189
:101780002E833F834887598720E0E8E0CE2ED12C76
:10179000C80ED91E0FB6F8940F92F701968D878D5B
:1017A000981708F456C08E819F81A885B985009747
:1017B000A105B10509F469C0222369F10F900FBE9C
:1017C0000E943D100FB6F8940F92F70181A18F3F50
:1017D00039F1F70182A18F3F41F10F900FBECE0189
:1017E0000196BE016A5F7F4F0E946113882309F052
:1017F00050C00FB6F8940F92F701968D0F900FBE60
:10180000F701878D981799F0C7010E94820A0E94FC
:101810006A1121E0BFCFCE0101960E945013CECFB6
:1018200011A2F70182A18F3FC1F612A2D6CF4E813D
:101830005F8168857985C6010E94D812C7010E9420
:10184000820A0E946A11882321F70E94AC0921E0D4
:10185000A1CFC701B501402F0E94D60AF7018389A5
:101860008823F1F40F900FBE81E029960FB6F8940B
:10187000DEBF0FBECDBFDF91CF910F91FF90EF90F4
:10188000DF90CF90BF90AF9008950F900FBE80E093
:10189000ECCFC7010E94820A0E946A1180E0E5CF66
:1018A000C70143960E9402138130E1F60E94AC0901
:1018B000D9CF0F93CF93DF9383E290E00E94A108EA
:1018C000EC01009701F11B821A82198218821D8295
:1018D0001C821F821E821E8E81E08F8F18A28FEFC6
:1018E00089A38AA3CE0108960E942615CE014396AD
:1018F0000E942615CE0160E070E020E030E0A901F2
:1019000000E00E94AD0BCE01DF91CF910F910895C1
:101910000F931F93CF93DF93EC018A019E8D8F8DE0
:10192000981730F080E0DF91CF911F910F910895CB
:10193000CE01422F0E94D60A8AA18F3F41F08F5FCD
:101940008AA381E0DF91CF911F910F9108958B8938
:10195000882311F481E0E7CFCE0143960E94021361
:101960008823C1F381E0F8018083DDCFAF92BF927D
:10197000DF92EF92FF920F931F93CF93DF93CDB738
:10198000DEB729970FB6F894DEBF0FBECDBF7C013E
:101990005B012E833F8348875987D02E20E08C013E
:1019A0000D5E1F4F0FB6F8940F92F701868D8823B6
:1019B00009F06AC08E819F81A885B9850097A1052D
:1019C000B10509F47EC0222309F43FC00F900FBE79
:1019D0000E943D100FB6F8940F92F70181A18F3F3E
:1019E00009F43FC0F70182A18F3F09F440C00F9076
:1019F0000FBECE010196BE016A5F7F4F0E94611348
:101A0000882309F071C00FB6F8940F92F701868D04
:101A10000F900FBE8823F1F4F70180819181009728
:101A200041F14E815F8168857985C8010E94D81295
:101A3000C7010E94820A0E946A11882311F021E0E6
:101A4000B1CF0E94AC0921E0ADCFCE0101960E943A
:101A50005013BCCFC7010E94820A0E946A1121E084
:101A6000A1CF11A2F70182A18F3F09F0C0CF12A22E
:101A7000BECF0FB6F8940F92F701828193810E9436
:101A8000E9130F900FBECDCF06811781C701B501B5
:101A90000E94630AF701DD2071F5868D8150868FE3
:101AA000808191810097B9F1F7018085882341F108
:101AB000C70108960E940213813011F50E94AC09FB
:101AC0001FC00F900FBE80E029960FB6F894DEBFBE
:101AD0000FBECDBFDF91CF911F910F91FF90EF907F
:101AE000DF90BF90AF900895C7010E94820A0E94C4
:101AF0006A1180E0E9CF178306838389882321F464
:101B00000F900FBE81E0E0CFC70143960E94021301
:101B10008823B1F3D3CF0E94E413F7019383828328
:101B2000C3CF0F931F93CF93DF93EC018A018E8D68
:101B3000882331F480E0DF91CF911F910F910895B8
:101B4000CE010E94630A8E8D81508E8F89A18F3FB6
:101B500041F08F5F89A381E0DF91CF911F910F91B9
:101B600008958885882311F481E0E5CFCE01089699
:101B70000E9402138823C1F381E0F8018083DBCF48
:101B80000FB6F8940F92FC01868D0F900FBE08954A
:101B9000FC01868D0895CF93DF93EC0188819981B4
:101BA0000E94CD08CE010E94CD08DF91CF9108950B
:101BB000FC01968D81E0911180E00895FC01268D55
:101BC00081E0978D291380E008958091031A823077
:101BD000E0F30E94AC09F9CFCF92DF92EF92FF922F
:101BE0006B017C01E091F219F091F3196283738328
:101BF000848395838091FA199091FB19A091FC1927
:101C0000B091FD19C816D906EA06FB0630F180919D
:101C1000011A9091021A6091F2197091F3196E5F96
:101C20007F4F0E9462158091950290919602A0913B
:101C30009702B0919802C816D906EA06FB0640F44E
:101C4000C0929502D0929602E0929702F09298028A
:101C5000FF90EF90DF90CF9008958091FF199091C1
:101C6000001A6091F2197091F3196E5F7F4F0E9414
:101C70006215FF90EF90DF90CF9008954F925F92A2
:101C80006F927F928F929F92AF92BF92CF92DF928C
:101C9000EF92FF920F931F93CF93DF932C014B0191
:101CA0005A013901D02F88E290E00E94A1088C01EE
:101CB000009709F4BAC0C114D10409F4F7C0FC01BB
:101CC000D48EC38EC60161E170E0A5010E9480162A
:101CD000C5010197F801C38CD48CC80ED91EC80168
:101CE0004D96B4014AE050E00E948716F80116A212
:101CF000CD2FD43008F093C0F801C28FC7A3B2E053
:101D0000AB2EB12CA00EB11EC5010E943715C80123
:101D10000E960E943715F8011387028784E090E041
:101D2000A0E0B0E08C1B9109A109B10986879787D3
:101D3000A08BB18B178B068BC601B201A3010E9449
:101D4000DC08F80191838083E114F10419F0F701B4
:101D5000118300830FB6F8940F928091FE198F5F64
:101D60008093FE198091F2199091F319009709F46C
:101D70005EC08091F819882359F4E091F219F0912E
:101D8000F319828DD81720F01093F3190093F219EC
:101D9000F801228D8091501A821710F42093501A66
:101DA0008091511A8F5F8093511A8091F91982178F
:101DB00098F130E0C901880F991FA901440F551F00
:101DC000440F551F440F551F840F951F820F931FFB
:101DD0008D5F954EB5010E943B150F900FBE80910F
:101DE000F819882339F0E091F219F091F319828DF6
:101DF0008D17B8F081E0DF91CF911F910F91FF9087
:101E0000EF90DF90CF90BF90AF909F908F907F909A
:101E10006F905F904F9008952093F919CACFC3E057
:101E20006BCF0E94AC0981E0E6CF8FEFE4CF109337
:101E3000F3190093F2198091FE19813009F0A8CFAF
:101E4000CC24DD24C601880F991F9601220F331F71
:101E5000220F331F220F331F820F931F8C0D9D1DE6
:101E60008D5F954E0E9426150894C11CD11CF4E08C
:101E7000CF16D10439F77FE2E72E7AE1F72EC701BA
:101E80000E942615EAE3CE2EEAE1DE2EC6010E946C
:101E9000261585E49AE10E942615F092021AE09236
:101EA000011AD092001AC092FF1972CFC5010E9488
:101EB000A1086C01F801948F838F009709F002CF7D
:101EC000C8010E94CD088FEF96CF0FB6F8940F92FD
:101ED000009729F0FC010F900FBE828D0895E091CC
:101EE000F219F091F3190F900FBE828D0895EF92C1
:101EF000FF921F93CF93DF93E62F643008F0E3E067
:101F00000FB6F8940F922091F2193091F3198217BD
:101F1000930709F448C0009709F445C0EC012FA1CC
:101F20002E1771F111E02E1798F5009799F18A8D0F
:101F30002817A1F1EFA344E050E060E070E04E1BF1
:101F40005109610971094E875F87688B798B822FF0
:101F500090E0AC01440F551F9C01220F331F220F4C
:101F6000331F220F331F420F531F480F591F4D5F5E
:101F7000554E8C859D8584179507E1F0113081F0D1
:101F80000F900FBEDF91CF911F91FF90EF900895BA
:101F9000009769F210E08A8D281761F6EA8FCACFA0
:101FA0000E94AC09EDCFC091F219D091F31980E0F5
:101FB00090E0B5CF82E0E82EF12CEC0EFD1EC701BB
:101FC0000E94B6152A8D8091F919821710F420937A
:101FD000F91930E0C901880F991FA901440F551F55
:101FE000440F551F440F551F840F951F820F931FD9
:101FF0008D5F954EB7010E943B15C0CFAF92BF9247
:10200000CF92DF92EF92FF920F9385EE9DE060E911
:1020100072E044E650E020E030E000E0F2E5EF2E30
:10202000FAE1FF2ECC24DD24AA24BB240E943E0E1C
:10203000813041F00F91FF90EF90DF90CF90BF90F3
:10204000AF900895F8948093F8191092FA191092AD
:10205000FB191092FC191092FD190E9470090F9142
:10206000FF90EF90DF90CF90BF90AF900895F894DD
:102070001092F8190E94AB0908958091F7198F5FAB
:102080008093F71908950F931F930FB6F8940F924A
:102090000091FA191091FB192091FC193091FD194A
:1020A0000F900FBEB801C9011F910F9108950F93B2
:1020B0001F930091FA191091FB192091FC1930918E
:1020C000FD19B801C9011F910F9108958091FE1962
:1020D0000895009711F04D9608958091F21990910E
:1020E000F3194D9608958091521A9091531A0895BC
:1020F0000F931F93CF93DF938091F719882309F0F3
:1021000093C08091FA199091FB19A091FC19B0919C
:10211000FD190196A11DB11D8093FA199093FB1929
:10212000A093FC19B093FD198091FA199091FB19B5
:10213000A091FC19B091FD190097A105B10509F412
:102140007DC08091950290919602A0919702B091E6
:1021500098024091FA195091FB196091FC19709105
:10216000FD19481759076A077B0708F045C061C089
:10217000E091011AF091021A0780F085E02DC085E8
:10218000D1858A819B81AC81BD814091FA195091A2
:10219000FB196091FC197091FD19481759076A07DE
:1021A0007B0708F48AC08E010E5F1F4FC8010E9492
:1021B000B615888D998D009721F0CE010E960E945C
:1021C000B6152A8D8091F919821710F42093F91908
:1021D00030E0C901880F991FA901440F551F440F12
:1021E000551F440F551F840F951F820F931F8D5F3E
:1021F000954EB8010E943B15E091011AF091021A28
:102200008081882309F0B4CF8FEF9FEFDC018093AA
:10221000950290939602A0939702B0939802DF9153
:10222000CF911F910F9108958091F6198F5F809340
:10223000F619DF91CF911F910F9108958091011AA6
:102240009091021A2091FF193091001A3093021ACE
:102250002093011A9093001A8093FF198091F4192A
:102260008F5F8093F419E091011AF091021A808136
:10227000882361F48FEF9FEFDC01809395029093A8
:102280009602A0939702B093980263CFE091011A4F
:10229000F091021A0780F085E02D0084F185E02D91
:1022A00082819381A481B581809395029093960257
:1022B000A0939702B09398024CCF8093950290938D
:1022C0009602A0939702B0939802DF91CF911F914D
:1022D0000F910895EF92FF920F931F93CF93DF9387
:1022E0000F92CDB7DEB70FB6F8940F928091F71921
:1022F00081508093F7198091F719882309F064C001
:102300008091FE19882309F455C019828091451ADD
:10231000882309F43FC0E0914C1AF0914D1AE084F3
:10232000F184C7010E960E94B61587010E5F1F4FFC
:10233000C8010E94B615D7015A962C915A978091E0
:10234000F919821710F42093F91930E0C901880FA8
:10235000991FA901440F551F440F551F440F551FC6
:10236000840F951F820F931F8D5F954EB8010E94B9
:102370003B15E091F219F091F319D7015A969C910F
:102380005A97828D981710F2B1E0B9838091451A5F
:10239000882309F68091F6198823C1F4E981E13098
:1023A00021F08091F519813079F41092F5190E948D
:1023B000AC0981E00F900FBE0F90DF91CF911F917C
:1023C0000F91FF90EF90089580E0F4CF8091F6197F
:1023D000882359F30E9478108091F61981508093D8
:1023E000F6198091F6198823A9F7DFCFCF92DF92F3
:1023F000EF92FF92DC01CB010097A105B10539F402
:102400000E94AC09FF90EF90DF90CF90089520914B
:10241000F7192F5F2093F719C090FA19D090FB1984
:10242000E090FC19F090FD19C80ED91EEA1EFB1EA3
:102430008091F2199091F31902960E94B615C70186
:10244000B6010E94EC0D0E946A118823C9F2FF9028
:10245000EF90DF90CF900895CF92DF92EF92FF92AE
:10246000FC016A017B018091F7198F5F8093F71956
:1024700080819181A281B381C80ED91EEA1EFB1E04
:102480004091FA195091FB196091FC197091FD1956
:10249000481759076A077B0760F5C816D906EA0688
:1024A000FB0668F58091FA199091FB19A091FC192F
:1024B000B091FD198C159D05AE05BF0500F5C082D4
:1024C000D182E282F3828091F2199091F3190296FF
:1024D0000E94B615C701B6010E94EC0D0E946A1158
:1024E000882311F40E94AC09FF90EF90DF90CF9009
:1024F0000895C816D906EA06FB0608F3D3CFC082B2
:10250000D182E282F382EACF8091F719882331F0F9
:1025100044C08091F91981508093F9198091F9197B
:1025200090E0FC01EE0FFF1F9C01220F331F220FD2
:10253000331F220F331FE20FF31FE80FF91FED5F68
:10254000F54E8081882329F38091F91990E0FC01F0
:10255000EE0FFF1F9C01220F331F220F331F220F8C
:10256000331FE20FF31FE80FF91FED5FF54EA18156
:10257000B28114960D90BC91A02DB283A183CF019E
:102580000396A817B90769F018968D919C91199731
:102590009093F3198093F219089581E08093F519CF
:1025A000089514960D90BC91A02DB283A183ECCF19
:1025B000CF92DF92EF92FF926A017B016091F21954
:1025C0007091F319625F7F4F0E9462158091F2193A
:1025D0009091F31902960E94B6158091FA19909184
:1025E000FB19A091FC19B091FD198C0D9D1DAE1D1C
:1025F000BF1DBC01CD010E94EC0DFF90EF90DF905C
:10260000CF9008950F931F93CF93DF93DC0117961C
:10261000ED91FC91189700851185E8012E96CE0169
:102620000E94B6158091F719882389F5E801229652
:10263000CE010E94B615F801228D8091F9198217FA
:1026400060F130E0C901880F991FA901440F551F9F
:10265000440F551F440F551F840F951F820F931F62
:102660008D5F954EBE010E943B15E091F219F091ED
:10267000F31981E0D8015A962C915A97928D291717
:1026800008F480E0DF91CF911F910F91089585E4C8
:102690009AE1BE010E943B15E8CF2093F919D1CFF2
:1026A000FC018091F41980834091FA195091FB1933
:1026B0006091FC197091FD19418352836383748387
:1026C00008950F931F93CF93DF93FC01EB010FB697
:1026D000F8940F928091F4199081981709F453C0DF
:1026E00081819281A381B4814091FA195091FB19A3
:1026F0006091FC197091FD19481759076A077B070B
:10270000D0F54091FA195091FB196091FC19709124
:10271000FD19088119812A813B81481B590B6A0BDD
:102720007B0B401751076207730728F54091FA1990
:102730005091FB196091FC197091FD19041B150B48
:10274000260B370B080F191F2A1F3B1F08831983FD
:102750002A833B838091F41980838091FA199091A8
:10276000FB19A091FC19B091FD1981839283A38379
:10277000B48380E001C081E00F900FBEDF91CF9164
:102780001F910F91089581819281A381B481B9CF66
:1027900081E08093F5190895009779F0FC01038C8E
:1027A000F48DE02D8081813169F4319680E090E0F4
:1027B000019621912131E1F30895E091F219F09110
:1027C000F319EDCF80E008958091F2199091F319FB
:1027D00008950F931F93CF93DF93EC018A8DE091BF
:1027E000F219F091F319928D891768F5E091F219B9
:1027F000F091F319928D44E050E060E070E0491BE5
:102800005109610971094E875F87688B798B90E068
:10281000AC01440F551F9C01220F331F220F331FA1
:10282000220F331F420F531F480F591F4D5F554E44
:102830008C859D858417950759F0E091F219F091E8
:10284000F319828D8A8FDF91CF911F910F91089597
:102850008E010E5F1F4FC8010E94B615E091F2195C
:10286000F091F319228D2A8F8091F919821710F4B3
:102870002093F91930E0C901880F991FA901440F6D
:10288000551F440F551F440F551F840F951F820F6E
:10289000931F8D5F954EB8010E943B15D4CF0F93C7
:1028A0001F93CF93DF93EC01009781F19A8D8FA155
:1028B000981761F18E010E5F1F4FC8010E94B61577
:1028C0002FA12A8F84E090E0A0E0B0E0821B910964
:1028D000A109B1098E879F87A88BB98B8091F919BF
:1028E0008217C8F030E0C901880F991FA901440F71
:1028F000551F440F551F440F551F840F951F820FFE
:10290000931F8D5F954EB8010E943B15DF91CF91CB
:102910001F910F9108952093F919E4CF0F931F93FE
:10292000CF93DF93EC01442309F445C08EEC90E093
:102930009983888388EC90E09B838A8389EC90E07C
:102940009D838C8388E18093C90086E08093CA00D0
:102950001092CD008B0120E030E0000F111F221FEC
:10296000331F000F111F221F331F000F111F221FC3
:10297000331F000F111F221F331F60E074E284EF2A
:1029800090E0A90198010E9451162093CC008091FB
:10299000C80081608093C80080E28E8380E88F83C6
:1029A00080E48887E881F98180818081DF91CF91FF
:1029B0001F910F91089586EC90E09983888380ECB5
:1029C00090E09B838A8381EC90E09D838C8388E1F7
:1029D0008093C10086E08093C2001092C5008B01F5
:1029E00020E030E0000F111F221F331F000F111FC6
:1029F000221F331F000F111F221F331F000F111F33
:102A0000221F331F60E074E284EF90E0A901980177
:102A10000E9451162093C4008091C0008160809371
:102A2000C000BACFFC01A281B3819C91868198231A
:102A300081E009F480E00895FC01A281B3819C91BA
:102A40008085982381E009F080E00895FC010396D9
:102A5000928381834FEF5FEFBA0143835483658391
:102A60007683908787839287818710820895FC01FF
:102A7000138612860895CF93DF93EC01FB018981C1
:102A80009A81DC0114962D913C911597358324830E
:102A90009783868314962D913C911597D9011796AB
:102AA0007C936E931697DC0115967C936E93149726
:102AB0007A836983D387C28788818F5F8883DF9118
:102AC000CF910895CF92DF92EF92FF92CF93DF9351
:102AD0009C01EB01488159816A817B814F3F8FEFD7
:102AE00058078FEF68078FEF7807D1F1F901339618
:102AF000D90117968D919C911897DC01CD90DD90AE
:102B0000ED90FC9013974C155D056E057F0578F0F0
:102B10000480F581E02DA481B5818D919D910D906A
:102B2000BC91A02D481759076A077B0788F7A48135
:102B3000B581BD83AC831796DC93CE931697FF8344
:102B4000EE83D583C4833B872A87F90180818F5F19
:102B50008083DF91CF91FF90EF90DF90CF90089529
:102B6000D9011996ED91FC911A97E1CFCF93DF939C
:102B7000FC01A481B5818681978117969C938E93E1
:102B80001697C681D781BD83AC83A285B385119684
:102B90008D919C9112978E179F0741F01386128694
:102BA0008C9181508C93DF91CF9108951296DC9394
:102BB000CE931197138612868C9181508C93DF915E
:102BC000CF9108950F931F93CF93DF93CDB7DEB7C7
:102BD00062970FB6F894DEBF0FBECDBF14BE88E17A
:102BE0000FB6F89480936000109260000FBECE0183
:102BF000019660E875E241E00E94BA07CE010196B5
:102C000067E00E94D9056AE00E94D9058C016CEC4E
:102C100070E00E949805C80166E00E94D90582E133
:102C200090E00E94610560E072E042E028E131E05E
:102C30008E010F5F1F4F0E9467010E94FE0F80E010
:102C400090E062960FB6F894DEBF0FBECDBFDF9165
:102C5000CF911F910F9108950F931F938AE992E0EE
:102C600060E270E040E050E00AE010E020E030E098
:102C70000E9429051F910F910895AA1BBB1B51E1CA
:102C800007C0AA1FBB1FA617B70710F0A61BB70BDC
:102C9000881F991F5A95A9F780959095BC01CD0181
:102CA0000895A1E21A2EAA1BBB1BFD010DC0AA1F8D
:102CB000BB1FEE1FFF1FA217B307E407F50720F0A5
:102CC000A21BB30BE40BF50B661F771F881F991F20
:102CD0001A9469F760957095809590959B01AC0169
:102CE000BD01CF0108950790F691E02D0994FB01F5
:102CF000DC0102C001900D9241505040D8F7089578
:102D0000DC0101C06D9341505040E0F70895FB0194
:102D1000DC014150504048F001900D920020C9F76D
:102D200001C01D9241505040E0F70895FA01CF9341
:102D3000FF93EF932230CCF02532BCF4C22F2C2F1E
:102D4000332744275527FF93EF930E945116EF91A5
:102D5000FF91605D6A330CF0695D6193B901CA014E
:102D6000605070408040904051F710828F919F9149
:102D7000CF910C94D116FB019F01423074F0453283
:102D800064F4642F77270E943D16805D8A330CF02F
:102D9000895D8193CB010097A1F71082C9010C9442
:102DA000D116DC01FC01672F71917723E1F732978F
:102DB00004C07C916D9370836291AE17BF07C8F316
:062DC0000895F894FFCF16
:102DC60042726967687400000000000701A00341B1
:102DD6002F4420636F6E7374727563746F72204F25
:102DE6004B0041444D55583A20004144435352410B
:102DF6003A20004D6F746F72206472697665722096
:102E0600636F6E7374727563746F72204F4B0054E8
:102E1600434E54313A2000000000008005A0030014
:102E260000000081050B050005E004880589050002
:102E36000000008105800586058305880589050350
:102E46000000000081052D079907480788059007AF
:0A2E560049444C4500FFFFFFFF0058
:00000001FF
